:020000040800F2
:1000000000C00020F90200080103000805030008F1
:10001000790300087D030008C50300080000000004
:100020000000000000000000000000000D040008B7
:10003000110400080000000015040008190400085D
:1000400029040008290400082904000829040008DC
:1000500029040008290400082904000829040008CC
:1000600029040008290400082904000829040008BC
:1000700029040008290400082904000829040008AC
:10008000290400082904000829040008290400089C
:10009000290400082904000829040008290400088C
:1000A000290400082904000829040008290400087C
:1000B000290400082904000829040008290400086C
:1000C000290400082904000829040008290400085C
:1000D000290400082904000829040008290400084C
:1000E000290400082904000829040008290400083C
:1000F000290400082904000829040008290400082C
:10010000290400082904000829040008290400081B
:10011000290400082904000829040008290400080B
:100120002904000829040008C9220008290400083D
:1001300000000000000000000000000000000000BF
:1001400000000000000000000000000000000000AF
:10015000000000000000000000000000000000009F
:10016000000000000000000000000000000000008F
:10017000000000000000000000000000000000007F
:10018000000000000000000000000000000000006F
:10019000000000000000000000000000000000005F
:1001A000000000000000000000000000000000004F
:1001B000000000000000000000000000000000003F
:1001C000000000000000000000000000000000002F
:1001D000000000000000000000000000000000001F
:1001E0005FF8E0F100B583B001F014FC304B314A08
:1001F0001360314A1360314B314A03E011681960D2
:10020000043304322F498B42F8D32A4B1A682E4B01
:100210009A4204D1284B1A682C4B9A4200D0FEE730
:10022000234B2B4A13602B4A13602B4B02E0002216
:100230001A600433294A9342F9D3254B1B6813B93A
:10024000244B1B6803B1FEE701F0F0FB694601A8EF
:1002500001F00CFB224C234B1C1BA410002504E0D6
:100260001F4B53F8253098470135AC42F8DC1E4C43
:100270001E4B1C1BA410002504E01B4B53F825301B
:1002800098470135AC42F8DC0099019801F016FF5F
:100290000546174C174B1C1BA41004E0013C144BE3
:1002A00053F824309847002CF8DC284601F07AFAFD
:1002B000BABADECA000000208C0000200000002036
:1002C000CC570008900000207856341232547698AB
:1002D0009000002014050020900000201805002048
:1002E000540400085404000854040008540400088E
:1002F000540400085404000808B5FFF773FF00BF5A
:1003000000BEFEE71EF0040F0CBFEFF30880EFF312
:1003100009807146414A10472DE9F04182B00446F8
:100320008846134B5E6B9F6B9D6A1B6B13F0020F2D
:100330000DD00F4BDB6A002B09DA4BF6AB6101F0F5
:10034000F1FB20B14FF00042094BDA620CE00948A2
:1003500001F002FBCDF800803B463246294620469C
:1003600001F068FB00BEFEE702B0BDE8F08100BF0F
:1003700000ED00E06054000800BEFEE71EF0040F30
:100380000CBFEFF30880EFF309807146244A104751
:100390002DE9F04182B004468846084B5E6B9F6BA6
:1003A0009D6A074801F0D8FACDF800803B463246F6
:1003B0002946204601F03EFB00BEFEE700ED00E0CE
:1003C000705400081EF0040F0CBFEFF30880EFF329
:1003D00009807146134A10472DE9F04182B0044666
:1003E0008846084B5E6B9F6B9D6A074801F0B4FA24
:1003F000CDF800803B4632462946204601F01AFBE4
:1004000000BEFEE700ED00E07C54000800BEFEE701
:1004100000BEFEE700BEFEE77047000019030008BB
:0C04200091030008D903000800BEFEE7AD
:10042C00CC5700080000002090000020CC5700089A
:10043C0000000000000000009000002018050020C3
:08044C000000000000000000A8
:1004540010B50446B0F5E06F0FD0B0F5C06F0CD006
:10046400B0F5A06F09D0B0F5806F06D0B0F5407F2D
:1004740003D06321044801F063FA44F0BF6444F4F8
:100484000034024BDC6010BD3C51000800ED00E07C
:1004940010B50446C378012B03D975211F4801F018
:1004A4004FFA63780F2B03D976211C4801F048FAE0
:1004B400A3780F2B03D97721184801F041FAE37888
:1004C400FBB1174BDB68DB43C3F30223C3F1040125
:1004D4000F22DA40637803FA01F1A37813400B4347
:1004E4001B012278DBB20F490A4482F800332378D7
:1004F400580903F01F03012202FA03F341F82030E4
:1005040010BD23785A0903F01F03012101FA03F3F4
:100514002032044941F8223010BD00BF3C5100088C
:1005240000ED00E000E100E038B505460C460B683C
:100534009BB1042B11D00C2B0FD0142B0DD01C2BE2
:100544000BD0242B09D02C2B07D0342B05D03C2BDB
:1005540003D07921384801F0F3F963683BB1402BAB
:1005640005D0802B03D07A21334801F0E9F9A36840
:10057400002B46D0B3F5807F43D0B3F5007F40D045
:10058400B3F5407F3DD0B3F5806F3AD0B3F5A06F9B
:1005940037D0B3F5C06F34D0B3F5E06F31D0B3F5D5
:1005A400006F2ED0B3F5106F2BD0B3F5206F28D089
:1005B400B3F5306F25D023B3B3F5807F21D0B3F5E5
:1005C400007F1ED0B3F5407F1BD0B3F5806F18D0E9
:1005D400B3F5A06F15D0B3F5C06F12D0B3F5E06FCB
:1005E4000FD0B3F5006F0CD0B3F5106F09D0B3F58D
:1005F400206F06D0B3F5306F03D07B210E4801F095
:100604009FF9E3682BB1022B03D07C210A4801F047
:1006140097F90A490B6840F6FE70A84023EA0002E5
:10062400206863681843A3681843E3681843A84024
:100634001043086038BD00BF6451000800740040D6
:1006440038B50C46054628B1102803D0B0210D4812
:1006540001F076F9012C03D9B1210A4801F070F9AF
:100664003CB1094A1168012303FA05F50D431560ED
:1006740038BD05490B68012202FA05F523EA050590
:100684000D6038BD645100080074004038B50C4654
:10069400054628B1102803D0EC210E4801F050F98A
:1006A400012C03D9ED210B4801F04AF944B10A4A5F
:1006B40011684FF4805303FA05F50D43156038BDF6
:1006C40005490B684FF4805202FA05F523EA050543
:1006D4000D6038BD645100080074004010B5044634
:1006E4004F4B984225D01433984222D01433984269
:1006F4001FD0143398421CD01433984219D01433A9
:10070400984216D01433984213D003F5627398427A
:100714000FD0143398420CD01433984209D01433B8
:10072400984206D01433984203D06F213D4801F01B
:1007340007F9236823F001031B041B0C2360002327
:1007440023606360A360E360354B9C4205D1364A65
:10075400536843F00F03536010BD344B9C4205D1E2
:10076400314A536843F0F003536010BD304B9C4250
:1007740005D12D4A536843F47063536010BD2D4B6B
:100784009C4205D1284A536843F47043536010BD1A
:10079400294B9C4205D1244A536843F47023536087
:1007A40010BD264B9C4205D11F4A536843F4700385
:1007B400536010BD224B9C4205D11B4A536843F041
:1007C4007063536010BD1F4B9C4205D11E4A536891
:1007D40043F00F03536010BD1C4B9C4205D11A4AD1
:1007E400536843F0F003536010BD194B9C4205D18C
:1007F400154A536843F47063536010BD154B9C4213
:1008040005D1114A536843F47043536010BD124B31
:100814009C4204D10C4A536843F47023536010BDC6
:100824000800024094510008000002401C000240ED
:100834003000024044000240580002406C00024074
:100844008000024008040240000402401C040240EC
:1008540030040240440402405804024038B50546BE
:100864000C46504B984225D01433984222D014336E
:1008740098421FD0143398421CD01433984219D094
:100884001433984216D01433984213D003F562738C
:1008940098420FD0143398420CD01433984209D0A4
:1008A4001433984206D01433984203D0CF213E48E3
:1008B40001F046F8A368102B04D01BB1D0213A48AC
:1008C40001F03EF8E368013B4FF6FE72934203D910
:1008D400D121354801F034F82369402B04D01BB1F1
:1008E400D221314801F02CF86369802B04D01BB16C
:1008F400D3212D4801F024F8A3694BB1B3F5807FCF
:1009040006D0B3F5007F03D0D421274801F018F8AE
:10091400E3694BB1B3F5806F06D0B3F5006F03D034
:10092400D521214801F00CF8236A202B04D01BB1F7
:10093400D6211D4801F004F8636AB3F5405F0AD07C
:10094400B3F5005F07D0B3F5805F04D01BB1D721A6
:10095400154800F0F5FFA36AB3F5804F04D01BB12E
:10096400D821114800F0ECFF2B6823F4FF4222F059
:100974007002A168236A19432369194363691943FF
:10098400A3691943E3691943636A1943A36A0B43CF
:1009940013432B60E3686B602368AB606368EB60B0
:1009A40038BD00BF080002409451000838B5044621
:1009B4000D461F4B984226D01433984223D014334B
:1009C400984220D0143398421DD0143398421AD040
:1009D4001433984217D01433984214D003F5627339
:1009E400984210D0143398420DD0143398420AD050
:1009F4001433984207D01433984204D040F229119A
:100A04000C4800F09DFF012D04D94FF4957109485D
:100A140000F096FF25B1236843F00103236038BD3D
:100A2400236823F001031B041B0C236038BD00BFA3
:100A3400080002409451000870B504460D4616465D
:100A4400214B984226D01433984223D01433984231
:100A540020D0143398421DD0143398421AD0143342
:100A6400984217D01433984214D003F56273984215
:100A740010D0143398420DD0143398420AD0143352
:100A8400984207D01433984204D040F249110F48D9
:100A940000F056FF35F00E0300D125B94FF4A571CF
:100AA4000A4800F04DFF012E04D940F24B110748CB
:100AB40000F046FF1EB123681D43256070BD236806
:100AC40023EA0505256070BD080002409451000822
:100AD40010B50446431E012B40F29B80042800F00D
:100AE4009880082800F09580102800F09280202833
:100AF40000F08F80402800F08C80802800F08980EE
:100B0400B0F5807F00F08580B0F5007F00F0818033
:100B1400B0F5806F7DD0B0F5006F7AD0B0F5805F0E
:100B240077D0B0F5005F74D0B0F5804F71D0B0F5D8
:100B3400004F6ED0B0F5803F6BD0B0F5003F68D069
:100B4400B0F5802F65D0B0F5002F62D0B0F5801FCE
:100B54005FD0B0F5001F5CD0B0F5800F59D0B0F570
:100B6400000F56D0B0F1807F53D0B0F1007F50D049
:100B7400B0F1806F4DD0B0F1006F4AD02C4B984249
:100B840047D00133984244D00233984241D00433D1
:100B940098423ED0083398423BD01033984238D024
:100BA4002033984235D04033984232D08033984233
:100BB4002FD003F5807398422BD003F5007398422D
:100BC40027D003F58063984223D0B0F1102F20D0B2
:100BD40003F5C05398421CD003F50053984218D033
:100BE40003F58043984214D003F50043984210D093
:100BF40003F5803398420CD003F50033984208D0B3
:100C040003F58023984204D040F2B711094800F05C
:100C140097FE14F0805F02D0074B1B6801E0074B7E
:100C24001B68234201D0012010BD002010BD00BF6D
:100C3400010000109451000800040240000002402A
:100C440010B5044610F0704F02D0094B034003B9AD
:100C540024B940F20E21074800F072FE14F0805FC0
:100C640002D0054B5C6010BD044B5C6010BD00BF3E
:100C74000000F0EF9451000800040240000002401C
:100C840010B50446431E012B40F29B80042800F05B
:100C94009880082800F09580102800F09280202881
:100CA40000F08F80402800F08C80802800F089803C
:100CB400B0F5807F00F08580B0F5007F00F0818082
:100CC400B0F5806F7DD0B0F5006F7AD0B0F5805F5D
:100CD40077D0B0F5005F74D0B0F5804F71D0B0F527
:100CE400004F6ED0B0F5803F6BD0B0F5003F68D0B8
:100CF400B0F5802F65D0B0F5002F62D0B0F5801F1D
:100D04005FD0B0F5001F5CD0B0F5800F59D0B0F5BE
:100D1400000F56D0B0F1807F53D0B0F1007F50D097
:100D2400B0F1806F4DD0B0F1006F4AD02C4B984297
:100D340047D00133984244D00233984241D004331F
:100D440098423ED0083398423BD01033984238D072
:100D54002033984235D04033984232D08033984281
:100D64002FD003F5807398422BD003F5007398427B
:100D740027D003F58063984223D0B0F1102F20D000
:100D840003F5C05398421CD003F50053984218D081
:100D940003F58043984214D003F50043984210D0E1
:100DA40003F5803398420CD003F50033984208D001
:100DB40003F58023984204D040F25921094800F0F9
:100DC400BFFD14F0805F02D0074B1B6801E0074BA6
:100DD4001B68234201D0012010BD002010BD00BFBC
:100DE4000100001094510008000402400000024079
:100DF40010B5044610F0704F02D0094B034003B9FC
:100E040024B940F2AF21074800F09AFD14F0805F46
:100E140002D0054B5C6010BD044B5C6010BD00BF8C
:100E24000000F0EF9451000800040240000002406A
:100E3400F8B505460C46464B98421BD003F5806333
:100E4400984217D003F58063984213D003F580636A
:100E540098420FD003F5806398420BD003F580636A
:100E6400984207D003F58063984203D0B2213948F1
:100E740000F066FDE3788BB1042B0FD0282B0DD046
:100E8400482B0BD0142B09D0102B07D01C2B05D0CA
:100E9400182B03D0B3212F4800F052FD23881BB92F
:100EA400B4212C4800F04CFDE37803F00F063046E3
:100EB40013F0100F0AD0A378013BDBB2022B03D945
:100EC400BB21244800F03CFDA07830432378E3B1F3
:100ED4002E68002316E001229A40218832EA01019B
:100EE4000FD199000F278F4026EA070600FA01F177
:100EF4000E43E178282901D16A6102E0482900D132
:100F04002A610133072BE6D92E602388FF2B1ED9D3
:100F14006E68002318E003F1080101228A40218849
:100F240032EA01010FD199000F278F4026EA070604
:100F340000FA01F10E43E178282900D16A61E178D1
:100F4400482900D12A610133072BE4D96E60F8BD2A
:100F540000080140C451000838B504460D46144B3E
:100F640098421CD003F58063984218D003F580633F
:100F7400984214D003F58063984210D003F580633F
:100F840098420CD003F58063984208D003F580633F
:100F9400984204D040F26911064800F0D1FC25B90A
:100FA4004FF4B571034800F0CBFC256138BD00BF98
:100FB40000080140C451000838B504460D4620F429
:100FC400AA6323F0070303B920B940F22B410B486D
:100FD40000F0B6FC012D04D940F22C41074800F082
:100FE400AFFC25B1064A53691C43546138BD044A19
:100FF400536923EA0404546138BD00BFF851000862
:101004000010024038B504460D460E4B034003B9A8
:1010140020B940F24A410C4800F092FC012D04D959
:1010240040F24B41084800F08BFC25B1074A936914
:101034001C43946138BD054A936923EA040494610E
:1010440038BD00BF0200C0FFF85100080010024084
:1010540038B504460D460E4B184200D120B940F273
:1010640069410C4800F06CFC012D04D940F26A413E
:10107400084800F065FC25B1074AD3691C43D461D4
:1010840038BD054AD36923EA0404D46138BD00BFDE
:1010940000360181F851000800100240064B00227E
:1010A4001A605A609A60DA605A629A62DA62034994
:1010B4009963DA63704700BF00800140FF07C000F6
:1010C40010B50446036833B1B3F5005F03D0BA2109
:1010D4001E4800F035FC636833B1B3F5806F03D06C
:1010E400BB211A4800F02CFCA36833B1B3F5007F90
:1010F40003D0BC21154800F023FCE3684BB1B3F5E1
:10110400006F06D0B3F5805F03D0BD210F4800F017
:1011140017FC236933B1B3F5804F03D0BE210B48CC
:1011240000F00EFC0A48436823F4FD4121F07F01DE
:10113400227DA3681A4363681A43E3681A43236849
:101144001343226913430B43436010BD2852000824
:101154000080014010B50446012803D9EE2103485C
:1011640000F0EEFB024B1C6010BD00BF28520008CB
:10117400A000304210B5044628B1032803D0FE2154
:10118400054800F0DDFB054B1A6822F003021A60E3
:1011940018682043186010BD2852000800800140E0
:1011A400024B186800F00300704700BF0080014044
:1011B40038B504460D4610F07F4F00D120B94FF4E6
:1011C4009B710B4800F0BCFB012D04D940F2371190
:1011D400074800F0B5FB25B1064AD36B1C43D46322
:1011E40038BD044AD36B23EA0404D46338BD00BF7A
:1011F400285200080080014010B50446012804D993
:101204004FF4A771024800F09BFB024B1C6010BD19
:10121400285200088C05304210B5044643683F2B21
:1012240004D940F25F111B4800F08AFBA36843B164
:10123400402B06D0C02B04D04FF4B071154800F0F9
:101244007FFBE36853B1B3F5807F07D0B3F5007F2C
:1012540004D040F261110F4800F072FB2369B3F52A
:10126400806F05D023B14FF4B1710A4800F068FBD8
:10127400236809488360C36823F4FF6121F00701F0
:101284006268A3681A43E3681343226913430B4358
:10129400C36010BD2852000800800140014B18694A
:1012A400C0B270470080014010B582B000230193A2
:1012B400044650B1042808D0082806D00C2804D0CD
:1012C40040F2A111044800F03BFB044B234401937A
:1012D400019B186802B010BD285200081480014018
:1012E40010B504464368B3F1007F04D34FF4DA71B8
:1012F400284800F025FBA36803B3102B1ED0202B35
:101304001CD0302B1AD0402B18D0502B16D0602B69
:1013140014D0702B12D0802B10D0902B0ED0A02B79
:101324000CD0B02B0AD0C02B08D0D02B06D0E02B89
:1013340004D040F2B511174800F002FBE36833B162
:10134400022B04D04FF4DB71124800F0F9FA236940
:10135400042B05D023B140F2B7110E4800F0F0FA87
:101364006369012B04D94FF4DC710A4800F0E8FAF0
:10137400236809494B6263688B62CB6A23F0F700E8
:10138400A268E3681A43236913436269134303435E
:10139400CB6210BD2852000800800140014BD3F8F5
:1013A4008000704700800140014BC3F88000704703
:1013B4000080014010B50446431E012B40D9042887
:1013C4003ED008283CD010283AD0202838D04028D5
:1013D40036D0802834D0B0F5807F31D0B0F5007F8E
:1013E4002ED0B0F5806F2BD0B0F5006F28D0B0F5BB
:1013F400805F25D0B0F5005F22D0B0F5804F1FD0BC
:10140400B0F5004F1CD0B0F5803F19D0B0F5003FC7
:1014140016D0B0F5802F13D0B0F5002F10D0B0F552
:10142400801F0DD0B0F5001F0AD0B0F5800F07D093
:10143400B0F5000F04D040F29F21054800F080FA77
:10144400044B5B6B1C4201D0012010BD002010BD79
:10145400285200080080014010B50446054B0340A3
:1014640003B920B940F2C321034800F069FA034BE1
:101474009C6310BD00F83FFF285200080080014023
:1014840038B504460D462E4B984243D0B0F1804FF8
:1014940040D0A3F5943398423CD003F5806398423E
:1014A40038D003F58063984234D003F580639842C2
:1014B40030D003F5806398422CD003F590339842E2
:1014C40028D003F5C053984224D003F58063984292
:1014D40020D003F5806398421CD0A3F59E33984234
:1014E40018D003F58063984214D003F580639842C2
:1014F40010D003F5903398420CD003F580639842E2
:1015040008D003F58063984204D040F229310D4895
:1015140000F016FA012D04D940F22A31094800F0EE
:101524000FFA2DB123889BB243F00103238038BD09
:1015340023889BB223F001039BB2238038BD00BFF4
:10154400002C01405C52000870B504460E46154656
:10155400284B984243D0B0F1804F40D0A3F5943348
:1015640098423CD003F58063984238D003F58063F9
:10157400984234D003F58063984230D003F58063F9
:1015840098422CD003F59033984228D003F5C053E9
:10159400984224D003F58063984220D003F58063F9
:1015A40098421CD0A3F59E33984218D003F580636B
:1015B400984214D003F58063984210D003F5903319
:1015C40098420CD003F58063984208D003F58063F9
:1015D400984204D040F29B41074800F0B1F9012D34
:1015E40004D940F29C41044800F0AAF92685A5825A
:1015F40070BD00BF002C01405C52000838B50446A1
:101604000D46274B98422BD0B0F1804F28D0A3F53C
:101614009433984224D003F58063984220D003F594
:10162400806398421CD003F58063984218D003F578
:101634008063984214D003F59033984210D003F598
:10164400C05398420CD0A3F59A33984208D003F5BE
:101654009433984204D040F6A801124800F070F97F
:1016640095B1102D10D0202D0ED0302D0CD0402D42
:101674000AD0502D08D0602D06D0702D04D040F62D
:10168400A901084800F05CF9A3889BB223F0700319
:101694009BB2A380A18889B22943A18038BD00BF31
:1016A400002C01405C52000838B504460D46244B1A
:1016B400984243D0B0F1804F40D0A3F59433984280
:1016C4003CD003F58063984238D003F58063984298
:1016D40034D003F58063984230D003F58063984298
:1016E4002CD003F59033984228D003F5C053984288
:1016F40024D003F58063984220D003F58063984298
:101704001CD0A3F59E33984218D003F58063984209
:1017140014D003F58063984210D003F590339842B7
:101724000CD003F58063984208D003F58063984297
:1017340004D040F6F401034800F002F9A58538BD51
:10174400002C01405C52000808B5034800F01AF967
:10175400012000F025F800BF8C52000808B50D4B9D
:101764001B6813B90C4A0B4B1A600A4B1A68C31C4A
:1017740023F00303134409498B4206D903F078F894
:101784000C2303604FF0FF3008BD02490B60104684
:1017940008BD00BF940000201805002000BC0020F4
:1017A40000B508B9044D00E0044D1824204629462C
:1017B400ABBE0446FEE700BF260002002300020081
:1017C4002DE9F04184B0234F0197032603960023AB
:1017D4000293012401AD20462946ABBE80461E4B30
:1017E400C3F80080019703960423029320462946F8
:1017F400ABBE8046194BC3F80080019703960823BB
:10180400029320462946ABBE0446154B1C60B4F136
:10181400FF3F03D1114B1A68114B1A60002305E0F6
:101824004FF0FF310F4A42F833100133132BF7DD29
:101834000C4B094A12681A6000225A600749096869
:101844009960DA600649096819615A6104B0BDE813
:10185400F08100BFA052000814010020980000206D
:10186400180100201C010020F0B583B006460D4687
:10187400304B00934F2301936F461524204639467D
:10188400ABBE0446002C42D12A4B83F84F40009A49
:101894002746214636E0E1B927480068184490F904
:1018A4000100002803DB092B03D1012002E0012001
:1018B40000E0002028BB082C2ADC222B01D0272B97
:1018C40001D101321F461D4B43F82420013401216C
:1018D40017E02FB19F4214D1002111700F4610E080
:1018E40015480068184490F90100002803DB092B0F
:1018F40003D1012302E0012300E000230BB1002106
:101904001170013292F90030002BC4D100E00024A0
:101914002CB9084B00221A70084A13600134074B93
:10192400002243F8242034602B60FFF749FF03B002
:10193400F0BD00BFC4000020240000209C00002053
:1019440008B50A460146024800F004F8FFF7FCFE19
:10195400EC5200080FB400B583B004AB53F8042B69
:1019640001938021064803F08BF8002803DD01462B
:10197400034800F049F803B05DF804EB04B0704785
:10198400BC01002010B5044603F032F8014620469D
:1019940000F03AF80121024800F036F810BD00BF0B
:1019A400EC5500082DE9F04385B004460F46435634
:1019B40013BB042528462146ABBE04461FE035462A
:1019C400102E28BF1025002306E014F9011B04AAD9
:1019D4001A4402F8101C0133AB42F6D304AA134490
:1019E400002203F8102CE9464FF00408404649460B
:1019F400ABBE8046761B00E00E46002EDFD1384693
:101A040005B0BDE8F08300BF08B5FFF7CBFF08BD04
:101A140008B500F06BF9024B024A9A6008BD00BF9A
:101A240000ED00E00000000808B500F087F908BDEB
:101A3400F8B504460D4617461E462648FFF78AFFAA
:101A440021682548FFF786FF61682448FFF782FF75
:101A5400A1682348FFF77EFFE1682248FFF77AFF79
:101A640021692148FFF776FF61692048FFF772FF7B
:101A7400A1691F48FFF76EFFE1691E48FFF76AFF7F
:101A84001D48FFF767FF29461C48FFF763FF1C4CFE
:101A9400E16A1C48FFF75EFF216B1B48FFF75AFF02
:101AA400E16B1A48FFF756FF15F0800F03D0394653
:101AB4001748FFF74FFF15F4004F03D03146154880
:101AC400FFF748FF1448FFF745FF06991348FFF74F
:101AD40041FFF8BD44530008545300086453000800
:101AE400745300088453000894530008A453000856
:101AF400B4530008C4530008D4530008E05300084A
:101B040000ED00E0F05300080054000810540008F1
:101B14002054000830540008405400084854000879
:101B240038B583691B888B426FD1044603684568C6
:101B3400013B302B6BD8DFE803F0421D63635A2C62
:101B44002F2919196A19191919193219206A19230F
:101B54006A356A6A6A6A6A6A6A6A6A6A6A6A6A6A16
:101B64006A6A6A6A6A6A6A6A6A1919004FF0FF3314
:101B7400036045E00023036042E0002303603FE08C
:101B840000232B606B60AB60EB6039E000230360E3
:101B940036E0AB68036033E00023036030E00023E9
:101BA40003602DE0BFF34F8F1A49CA6802F4E06264
:101BB400194B1343CB60BFF34F8F00BFFDE71749A9
:101BC400286802F00BFF70B96B6813B90123236016
:101BD40016E0042B02D10223236011E0082B02D16A
:101BE400032323600CE04FF0FF33236008E02B68ED
:101BF400023B012B02D80023036001E0AB680360C1
:101C0400A3690233A361012038BD002038BD002040
:101C140038BD00BF00ED00E00400FA05A052000842
:101C240082B00023019300932C4A136843F4803359
:101C340013602A4B1B6803F400330093019B0133A8
:101C44000193009B1BB9019BB3F5A06FF1D1234B0A
:101C54001B6813F4003F02D00123009301E000232A
:101C64000093009B012B36D11D4B1A6842F01002E1
:101C74001A601A6822F003021A601A6842F002021B
:101C84001A60A3F580535A685A605A685A605A68B1
:101C940042F480625A605A6822F47C125A605A688C
:101CA40042F4E8125A601A6842F080721A600B4BD0
:101CB4001B6813F0007FFAD0084B5A6822F0030225
:101CC4005A605A6842F002025A60044B5B6803F09F
:101CD4000C03082BF9D102B0704700BF001002407A
:101CE4000020024008B5FFF79BFF08BD08B5104B64
:101CF4001A6842F001021A6059680E4A0A405A6092
:101D04001A6822F0847222F480321A601A6822F46B
:101D140080221A605A6822F4FE025A604FF41F02AD
:101D24009A60FFF7DFFF4FF00062034B9A6008BD33
:101D3400001002400000FFF800ED00E01F4B5B685C
:101D440003F00C03042B06D0082B08D03BBB1C4A21
:101D54001C4B1A6026E01A4A1A4B1A6022E0174AF2
:101D640053685268C3F38343023312F4803F05D1AE
:101D7400154A02FB03F3134A136013E00F4A526837
:101D840012F4003F05D0104A02FB03F30D4A13601E
:101D940008E00B4A02FB03F30A4A136002E0084A14
:101DA400084B1A60054B5B68C3F30313074AD35C03
:101DB400DAB204490B68D3400B607047001002404C
:101DC40000127A001400002000093D0004000020E5
:101DD4002DE9F0410446002380F8803206460122B2
:101DE40002F048FA04F50A773B460C2204F50D711B
:101DF400204602F02FFB6269E3689A4224D094F8EB
:101E04008052032D23D86B1C84F880324FEA450896
:101E140008EB0503990001F514713B46082221449F
:101E2400304602F017FB626908EB05018B00194686
:101E34002344C3F858220B462344D3F854121144C4
:101E4400304602F01FFCD6E74FF0000801E04FF0E7
:101E5400000894F88032984532DA08EB4803980079
:101E640000F51470251804221B49284602F0C8FD09
:101E740080B908EB480293002344D3F85812304643
:101E840002F000FC3B46102204F51071304602F0CB
:101E9400E1FA12E004221149284602F0B1FD60B9CA
:101EA4004FEA4802424493002344D3F85822C4F82A
:101EB4003022D3F85432C4F82C3208F10108C8E7B0
:101EC400D4F83012204602F0DDFB042384F881327A
:101ED4002046BDE8F08100BF8C54000894540008EB
:101EE400F8B505460C461646D0F82C72D0F83032B8
:101EF40042699B1AFA1800F50A773B46B24228BF9A
:101F0400324602F0A7FA6A69D5F83012D5F82C32B5
:101F14000B449A420AD3284602F0B4FBD5F828129F
:101F24003B46721A2144284602F094FA0021B1EB90
:101F3400560F0CD234F9112095F8810202F5FF43B3
:101F44007F339BB2034124F811300131EFE7F8BD30
:101F540030B908B500F054F82A2803D1002008BD90
:101F640001207047032008BD50B900B583B001A813
:101F740001F07EFA2A2801D1002003E0032001E0C9
:101F84000120704703B05DF804FB00BF98B9F8B5B1
:101F94001D4617460E460024AC420ED2E1194FF4FA
:101FA4000072490206EB442000F0A0FF2A2806D163
:101FB4000134E4B2F0E7002070470020F8BD0120AE
:101FC400F8BD00BF98B9F8B51D4617460E46002463
:101FD400AC420ED2E1194FF40072490206EB4420E0
:101FE40001F0AAF82A2806D10134E4B2F0E700206F
:101FF40070470020F8BD0120F8BD00BF04207047E1
:1020040010B594B000F01CFF2A2806D004460146FF
:102014000B48FFF79FFC204610E0684600F0AAFD3D
:1020240004462A2805D001460648FFF793FC2046BB
:1020340004E011990448FFF78DFC204614B010BD4C
:102044009C540008B0540008CC54000808B5012181
:102054000220FEF7B1FF01210420FEF7D3FF012186
:102064004FF00050FEF7F4FF01211020FEF7F0FFBF
:1020740008BD00BF70B582B01026ADF8046003231C
:102084008DF8063000238DF807300A4C01A920464C
:10209400FEF7CEFE2025ADF804508DF8076001A9A7
:1020A4002046FEF7C5FE29462046FEF755FF02B03E
:1020B40070BD00BF000801402DE9F043ADF2B44DFE
:1020C4006A4B19686A48FFF745FC01226949A0A8D0
:1020D40002F0A4F828B101466748FFF73BFC002052
:1020E400BFE00122654916A802F0C4F800B1B8E0C7
:1020F40016AA522101A802F079FB18B101A8FFF732
:1021040029FCF5E716A802F0ABFA4FF4217002F0AF
:1021140095FB04465A49FFF75BFE5A4D2C60B4F810
:1021240040125948FFF716FCB4F842125748FFF71B
:1021340011FCD4F844125648FFF70CFCD4F84812AA
:102144005448FFF707FCB4F84C125348FFF702FC5D
:10215400B4F84E125148FFF7FDFB2B68D3F82C124C
:102164004F48FFF7F7FBDFF8548198F8001081F02F
:10217400010188F800104B4F4FF4807207EB0121E6
:102184002868FFF7ADFE4848FFF7E4FBFFF75EFF62
:10219400FFF770FF454E002211463046FFF7D4F991
:1021A400324B1B684FF4FA41B3FBF1F1013989B2A8
:1021B4003046FFF779FA20213046FFF71FFA3C49F1
:1021C40004230B6000254D60CD602846FEF7ACF972
:1021D400DFF8EC904846FEF781FA364C364B236024
:1021E40098F8003007EB032767601023A36080236F
:1021F400E360256163614FF48073A3614FF48063EE
:10220400E36125624FF400536362A5620122062153
:102214004846FEF711FC21464846FEF71FFB012104
:102224004846FEF7C3FB01212846FEF709FA0121BF
:102234002846FEF72BFA01213046FFF721F94FF427
:10224400C060FEF705F93A238DF800308DF801508F
:102254008DF8025001238DF803306846FEF718F913
:10226400FEE70DF2B44DBDE8F08300BF140000207A
:10227400E8540008005500080455000818550008E3
:10228400245500083C02002030550008445500083D
:102294005455000864550008745500088455000816
:1022A400985500087C020020A85500080010004042
:1022B4004002002050020020087400401800002052
:1022C40030040240F8B51948FEF7DAFC10B117489B
:1022D400FEF78EFD1648FEF7D3FC30B31448FEF724
:1022E40087FD144C2046FEF7F9F9134D2B78134F54
:1022F400134E06EB03237B60012202212046FEF7E6
:102304009BFB39462046FEF7A9FA01212046FEF739
:102314004DFB297881F0010129704FF4807206EB9E
:102324000121084B1868FFF7DBFDF8BD000400101D
:102334000002001030040240180000205002002067
:102344007C0200203C02002003460020012B03D025
:102354005B080130C0B2F9E7704700BF10B54FF415
:1023640080342CB18020FFF725F818B9012302E04E
:10237400002300E000230BB1013CF2E72CB140F252
:10238400FF50FFF769F82A2010BD032010BD00BFDD
:1023940008B50F4B5A6B4FF4803312F0450F04D13C
:1023A4001BB1013B0A4A526BF7E713B112F0040F59
:1023B40004D00420FFF750F8032008BD12F0400FAA
:1023C40004D04020FFF748F82A2008BD2A2008BD81
:1023D4000080014008B50B4B5B6B13F0450F02D135
:1023E400084B5B6BF9E713F0040F04D00420FFF7EC
:1023F40033F8032008BD40F2FF50FFF72DF82A20E0
:1024040008BD00BF0080014008B50F4B5B6B13F0A3
:10241400450F02D10C4B5B6BF9E713F0040F04D0AA
:102424000420FFF719F8032008BD13F0010F04D0AE
:102434000120FFF711F8012008BD40F2FF50FFF71B
:102444000BF82A2008BD00BF0080014010B50446E7
:10245400444B5B6B13F0450F02D1424B5B6BF9E7C6
:1024640013F0040F04D00420FEF7F6FF032010BD80
:1024740013F0010F04D00120FEF7EEFF012010BD80
:10248400FEF70CFFA04243D140F2FF50FEF7E4FFF9
:102494000020FEF709FF344B0340DBB300283BDB8D
:1024A40010F0804F3AD110F0005F39D110F0805F06
:1024B40038D110F0006F37D110F0806F36D110F0A2
:1024C400807F35D110F4000F34D110F4800F33D154
:1024D40010F4001F32D110F4801F31D110F4002FFA
:1024E40030D110F4802F2FD110F4003F2ED110F4EE
:1024F400803F2DD110F4004F2CD110F4804F2BD1FC
:1025040010F4005F2AD110F0080F29D01A2010BD52
:10251400102010BD2A2010BD1C2010BD092010BDA4
:102524000A2010BD0B2010BD0C2010BD0D2010BDC5
:102534000E2010BD0F2010BD102010BD112010BDA5
:10254400122010BD132010BD142010BD152010BD85
:10255400162010BD172010BD182010BD192010BD65
:102564002A2010BD0080014008E0FFFD38B5044674
:102574000D461E4B5B6B13F0450F02D11B4B5B6B7F
:10258400F9E713F0040F04D00420FEF765FF0320DD
:1025940038BD13F0010F04D00120FEF75DFF0120C8
:1025A40038BDFEF77BFEA04218D140F2FF50FEF783
:1025B40053FF0020FEF778FE10F4604F03D1000CA7
:1025C40028802A2038BD10F4005F09D110F4804F10
:1025D40008D110F4004F07D00F2038BD102038BDAB
:1025E400132038BD102038BD2A2038BD008001409A
:1025F40010B582B004460023019300935D4A12682B
:1026040012045D4802600D22426040228260C36071
:102614004FF480630361FEF7FFFD584B5B6B00933F
:10262400009B13F0450F03D1544B5B6B0093F7E70A
:10263400009B13F0040F04D00420FEF70DFF0320C9
:1026440095E0009B13F0010F04D00120FEF704FF76
:1026540001208CE0FEF722FE0090009B0D2B5DD143
:1026640040F2FF50FEF7F8FE0020FEF71DFE019039
:10267400019BC3F343232370019A414B1340002B66
:102684004ED0019B002B4DDB019B13F0804F4BD1AF
:10269400019B13F0005F49D1019B13F0805F47D188
:1026A400019B13F0006F45D1019B13F0806F43D160
:1026B400019B13F0807F41D1019B13F4000F3FD1A4
:1026C400019B13F4800F3DD1019B13F4001F3BD1F8
:1026D400019B13F4801F39D1019B13F4002F37D1D0
:1026E400019B13F4802F35D1019B13F4003F33D1A8
:1026F400019B13F4803F31D1019B13F4004F2FD180
:10270400019B13F4804F2DD1019B13F4005F2BD157
:10271400019B13F0080F29D01A2028E0102026E08E
:102724002A2024E01C2022E0092020E00A201EE0C8
:102734000B201CE00C201AE00D2018E00E2016E0FF
:102744000F2014E0102012E0112010E012200EE0FF
:1027540013200CE014200AE0152008E0162006E0FF
:10276400172004E0182002E0192000E02A2002B01B
:1027740010BD00BFD0040020D4040020008001401C
:1027840008E0FFFD00B583B00121B020FEF73AFC5C
:102794004FF4F853ADF8043003238DF806301823B2
:1027A4008DF8073001A91148FEF742FB0423ADF868
:1027B40004300DEB03010E48FEF73AFB4FF40063BF
:1027C400ADF8043048238DF8073001A90948FEF715
:1027D4002FFB01214FF48060FEF7EEFB0121022064
:1027E400FEF7EAFB03B05DF804FB00BF00100140F4
:1027F40000140140001C014070B58CB006460D4623
:102804001348FEF71DFA134C00212046FEF7CEF8BC
:10281400114B0193029610230393AD0804950023F2
:102824000593802206924FF4007207924FF40062DF
:10283400089209934FF400520A920B9301A920467F
:10284400FEF70CF801212046FEF7B0F80CB070BD7D
:1028540000F00010440402408080014070B58CB048
:1028640006460D461348FEF7EBF9134C00212046AB
:10287400FEF79CF8114B0193029600230393AD08D5
:1028840004950593802206924FF4007207924FF448
:102894000062089209934FF400520A920B9301A923
:1028A4002046FDF7DBFF01212046FEF77FF80CB040
:1028B40070BD00BF00F0001044040240808001405D
:1028C40008B50348FEF704F90028FAD008BD00BF94
:1028D4000020001070B55C48B22303750024046026
:1028E40044608460C4600461FEF7EAFB0320FEF7E1
:1028F40041FC0120FEF72EFC5448046044608460CF
:10290400C4604FF480630361FEF786FCFFF726FD85
:102914002A2805D004464E48FFF71CF8204670BD0F
:102924004A484FF4D573036008234360402383600F
:102934000023C3604FF480630361FEF76DFCFFF76F
:1029440027FD044601464348FFF704F82A2C05D125
:102954000122414B1A604FF0804613E03B480026A9
:1029640006603724446040238360C6604FF480636C
:102974000361FEF751FC2046FFF768FD0146374826
:10298400FEF7E8FF31480023036037244460402207
:102994008260C3604FF480630361FEF73DFC204610
:1029A400FFF754FD044601462D48FEF7D3FF2A2CB9
:1029B40042D100200546024690BB4FF6FE739D426D
:1029C4002ED82248002303603724446040228260CA
:1029D400C3604FF480630361FEF71EFC2046FFF7DB
:1029E40035FD2A282ED146F0004343F480131748BE
:1029F400036029234360402383600023C3604FF4B2
:102A040080630361FEF708FCFFF7E4FC04462A2810
:102A140014D10020FEF748FC0246C00F0135CBE775
:102A24004FF6FE739D420AD812F0804F09D002225D
:102A3400094B1A60204670BD204670BD70BD1B2036
:102A440070BD204670BD00BFB4040020D404002033
:102A5400B0550008BC55000898040020C85500086B
:102A6400D455000810B582B00123ADF80630FEF746
:102A740097FB00286ED03A4B1B68042B21D03948B1
:102A84000023036002224260C0228260C3604FF4CC
:102A940080630361FEF7C0FBFFF7B6FC2A285CD114
:102AA4000020FEF701FC304C20600420FEF7FCFB04
:102AB40060600820FEF7F8FBA0600C20FEF7F4FB32
:102AC400E060274B1B68012B03D9062B01D0022B96
:102AD40013D124480023036003244460402282600D
:102AE400C3604FF480630361FEF796FB0DF10601AA
:102AF4002046FFF73BFD2A282FD1194B1B68042BD6
:102B04002AD0BDF80630194A13601B041548036027
:102B140009234360C02383600023C3604FF48063B0
:102B24000361FEF779FBFFF76FFC2A2815D100201B
:102B3400FEF7BAFB0E4C20600420FEF7B5FB606084
:102B44000820FEF7B1FBA0600C20FEF7ADFBE060AF
:102B54002A2002E0252000E02A2002B010BD00BF98
:102B640098040020D40400209C040020D0040020F9
:102B7400EC04002070B49E4B1C6880F84E409D4BC2
:102B84001B68A0F84C309C4D2B68190ECAB29609EC
:102B94000670C1F38301417002F003028270C3F333
:102BA4000742C270C3F307220271DBB243716A6841
:102BB400130E1B01C380C2F30741C3889BB243EACF
:102BC4001113C38001F00F010172110ACBB2DD09A8
:102BD4004572C1F380158572C1F34015C572C1F306
:102BE4000015057300254573012C3CD8890201F4B6
:102BF400406101610369920002F47F721A43026129
:102C04007D4B9B68190ECAB2046944EA92140461AC
:102C1400C1F3C201017502F0070242751A0CC2F336
:102C240042118175C2F38201C175520002F006029D
:102C34000276C3F30723027E42EAD31202760469C2
:102C4400651C4564027E0232012101FA02F205FB91
:102C540002F44464027AD2B201FA02F2826402FB00
:102C640004F242641AE0022C18D1120402F47C1219
:102C74000261614B9B68190E026942EA01220261FA
:102C84000269C3F307410A430261C3F307230269DC
:102C94000132D20442644FF400728264C3F380129E
:102CA40042765B0003F07E03837653490B7A827E7F
:102CB40042EAD312827603F07F03C376CA68130E06
:102CC400D9090177C3F341114177C3F382018177B5
:102CD4009B0003F00C03C377110CCBB2C47F44EA0E
:102CE4009314C477C1F3401180F82010002180F8B8
:102CF400211003F0010380F82230130AD9B2CC0961
:102D040080F82340C3F3801480F82440C3F34014B4
:102D140080F82540C3F3001480F82640C3F38103F0
:102D240080F8273001F0030180F82810C2F346022E
:102D340080F82920012180F82A10304C23681A0ECB
:102D440080F82C20C3F307421202C285C3F307257F
:102D5400C28D92B22A43C2851B06036363681D0EAB
:102D6400026B42EA054202631A0C056B120202F47A
:102D74007F422A430263026BC3F307252A4302639B
:102D8400DBB280F83430A3681A0E80F835201A0CB0
:102D9400120682631A0A856B120402F47F022A4324
:102DA4008263826B1B0203F47F4313438363E368F0
:102DB400826B42EA136282631A0C90F83C50C2F3AD
:102DC40003142C4380F83C40120202F47062C28760
:102DD400C3F30724C28F92B22243C287C3F34603CC
:102DE40080F8403080F841102A2070BC704700BF42
:102DF40098040020D0040020EC0400209C0400204F
:102E0400022803D8024B18602A20704726207047F6
:102E14001C00002010B5094B186007245C60402298
:102E24009A600022DA604FF480621A611846FEF755
:102E3400F3F92046FFF70AFB10BD00BFD4040020BD
:102E440010B594B0FFF79EFCFEF728F92048FEF772
:102E540081FDFFF73FFD2A2837D11E48FEF77AFD92
:102E6400FFF700FE04462A282FD11B48FEF772FD07
:102E74001A48022303750023036043608360C36020
:102E84000361FEF71DF92A2C03D16846FFF772FE91
:102E9400044621461248FEF75DFD2A2C05D1BDF8F3
:102EA4004C000004FFF7B6FF044621460D48FEF728
:102EB40051FD2A2C03D10020FFF7A2FF044621462E
:102EC4000948FEF747FD2046FFE714B010BD00BFD8
:102ED400E0550008F0550008F8550008B404002037
:102EE400005600080C56000818560008002800F088
:102EF400FA802DE9F8430E46154607462A22834BED
:102F04001A700024824B1C60824B1C608248834BE5
:102F1400036044608460C46004614461FEF7E0F9C6
:102F24002046FEF769F92046FEF7BEF910F0007F4F
:102F340040F0DB807A4B1B68022B02D1760A4FF4F7
:102F440000756B1E9BB2B3F5006F80F0D1806B1ED1
:102F54001D4240F0D0802846FFF7F6F98146A84686
:102F64007048056010244460402383600023C360DC
:102F74004FF480630361FEF74FF92046FFF766FACA
:102F84002A2840F0C0806448644B036045604FEADF
:102F9400091383600223C360002404610123436195
:102FA400FEF79EF95B4B1D605F4B1C605F4B1F601F
:102FB4005C4806601125456040238360C4604FF47B
:102FC40080630361FEF728F92846FFF73FFA0446B9
:102FD4002A2840F09380564B1B68022B51D1554B45
:102FE4005A6B40F22A631A4210D14FF40040FEF7A4
:102FF400E1F90028F3D00025072D05D8FEF7CEF916
:1030040047F825000135F7E72037E8E70820FEF701
:10301400D1F928B10820FEF71FFA0420BDE8F8838F
:103024000220FEF7C7F928B10220FEF715FA0220A4
:10303400BDE8F8832020FEF7BDF928B12020FEF773
:103044000BFA0620BDE8F8834FF40070FEF7B2F9DE
:1030540030B14FF40070FEF7FFF90720BDE8F883A4
:103064004FF40010FEF7A6F920B1FEF797F947F8E0
:10307400040BF5E740F2FF50FEF7EEF92046BDE8F9
:10308400F883012B1DD1012148F22A30FEF790F874
:103094001F4B1B6833B91D4B1B78DBB22A2B03D0A3
:1030A400002302E0002300E00123002BF0D1174BA2
:1030B4001B78DBB22A2B23D0144B1878C0B2BDE89E
:1030C400F88303BB012140F22A30FEF771F8012096
:1030D400FEF792F841463846FFF7C0FBFFF7F0FBD6
:1030E4002046BDE8F883262070470E20BDE8F8830B
:1030F4002620BDE8F8832620BDE8F883BDE8F883E0
:103104002046BDE8F883BDE8F88300BF2000002016
:10311400B0040020940400207C040020FFFF0F0072
:1031240098040020D4040020AC040020E80400200B
:103134001C000020008001402DE9F04383B00023EF
:103144008DF80730002800F06F810D469046064642
:103154002A22B64B1A700024B54B1C60B54B1C6078
:10316400B548B64B036044608460C4600461446144
:10317400FEF7B6F82046FEF73FF82046FEF794F82F
:1031840010F0007F40F06A81AD4B1B68022B02D126
:103194006D0A4FF4007808F1FF339BB2B3F5006F6A
:1031A40080F05E8108F1FF3318EA030F40F05A8182
:1031B4004046FFF7C9F807464446A248C0F80080D5
:1031C4004FF01008C0F80480402383600023C360DC
:1031D4004FF480630361FEF71FF84046FFF736F9AA
:1031E4002A2840F04281984B1B6803FA08F395485B
:1031F40003604FF00D08C0F804804023836000236F
:10320400C3604FF480630361FEF706F84046FFF79E
:103214001DF92A2840F029810020FEF745F8DFF83F
:103224001C8210F4807F20D1B8F1000F1DD008F16A
:10323400FF38854B1B681B04824803604FF00D095F
:10324400C0F80490402383600023C3604FF480637C
:103254000361FDF7E1FF4846FFF7F8F82A2840F03C
:1032640004810020FEF720F8DBE7B8F1000F00F03E
:10327400FB80744805601825456040238360002363
:10328400C3604FF480630361FDF7C6FF2846FFF770
:10329400DDF82A2840F0E980664B1C6000236B4A65
:1032A40013606B4A16606448644A026044603F01DC
:1032B4008760C360036101234361FEF711F8654B26
:1032C4001B68022B55D10025634B5A6B40F21A63DD
:1032D4001A4227D14FF48040FEF76CF80028F3D04F
:1032E400544B1B685B1B1F2B10D813F0030F01D129
:1032F4009C0801E09B085C1C0027A742E4D256F816
:10330400040BFEF751F801370435F6E70024072CC7
:1033140005D856F82400FEF747F80134F7E72036BD
:103324002035D1E70820FEF745F820B10820FEF744
:1033340093F8042099E00220FEF73CF820B1022023
:10334400FEF78AF8022090E01020FEF733F820B14F
:103354001020FEF781F8052087E04FF40070FEF797
:1033640029F800284BD04FF40070FEF775F80720B9
:103374007BE0012B1CD1012144F21A30FDF718FF28
:103384002B4B1B6833B9294B1B78DBB22A2B03D098
:10339400002302E0002300E00123002BF0D1234BA3
:1033A4001B78DBB22A2B2AD0204B1878C0B25CE001
:1033B4002BBB012140F21A30FDF7FAFE21463046BC
:1033C400FFF71AFA0120FDF717FFFFF779FA184BF8
:1033D4001B6833B9154B1B78DBB22A2B03D00023AF
:1033E40002E0002300E00123002BF0D10F4B1B78F7
:1033F400DBB22A2B03D00D4B1878C0B235E040F273
:10340400FF50FEF729F80DF10700FFF7F1F82A281D
:103414002BD19DF80730063BDBB2012B25D80DF1EB
:103424000700FFF7E5F8F2E726201EE02000002061
:10343400B0040020940400207C040020FFFF0F004F
:1034440098040020D4040020D0040020AC04002000
:10345400CC0400201C000020008001400E2004E069
:10346400262002E0262000E0292003B0BDE8F083F6
:10347400E8B138B505460F4B1B681B040E480360C2
:103484000D244460402383600023C3604FF48063B1
:103494000361FDF7C1FE2046FEF7D8FF04462A2843
:1034A40007D10020FDF700FF2860204638BD262004
:1034B400704738BDD0040020D4040020427800783E
:1034C40040EA0220704700BFC278837843EA0222B0
:1034D400437843EA0223007840EA0320704700BFA0
:1034E4000170090A417070470170C1F307234370EA
:1034F400C1F307438370090EC170704713462AB1A4
:103504000A78027001300131013BF9D1704700BFE4
:1035140001700130013AFBD1704700BF30B4451C43
:10352400037808781B1A013A04D04C1C284621461B
:10353400002BF4D0184630BC704700BF00E00130C7
:1035440090F900300BB18B42F9D11846704700BF97
:1035540002394369023B994204D24389806A01FBE0
:10356400030070470020704770B506460D4601F110
:103574001A00FFF7A3FF04463378032B05D105F1A6
:103584001400FFF79BFF44EA004070BD70B5064687
:103594000C46154691B204F11A00FFF7A1FF3378E7
:1035A400032B04D1290C04F11400FFF799FF70BD1B
:1035B4002DE9F84F824689460F6800F1200B0B2253
:1035C40020215846FFF7A4FF00252B464FF008089A
:1035D4005E1CFC5C202C4AD92F2C03D05C2C07D118
:1035E40000E00136BB572F2BFBD05C2BF9D03EE01B
:1035F4002E2C01D0A84509D8B8F10B0F4CD02E2C95
:103604004DD1334608254FF00B08E1E704F17F0262
:10361400D2B21E2A04D904F12002D2B21C2A15D82F
:103624000233B95DA1F14002D2B23E2A03D981F03E
:1036340080027C2A36D808F1FF32954235D26A1CC2
:103644000BF805400BF802100235C1E721461B4870
:10365400FFF774FF60BBA4F16103DBB2192B01D83F
:10366400203CE4B20BF8054001353346B0E73E4454
:10367400C9F80060FDB19AF82030E52B02D105238A
:103684008AF82030202C01D8042300E000238AF893
:103694002B300020BDE8F88F0620BDE8F88F062007
:1036A400BDE8F88F0620BDE8F88F0620BDE8F88F46
:1036B4000620BDE8F88F0620BDE8F88F20560008E4
:1036C40010B4046824B94FF0FF3321E0013200E064
:1036D400224692F90030D9B2202901D93A2BF5D1EA
:1036E4003A2B0BD1611C94F90030303B092B07D8DD
:1036F4008A4208D153B90132026009E0002307E08D
:103704004FF0FF3304E04FF0FF3301E04FF0FF339D
:10371400184610BC704700BF38B50C4670B105465A
:1037240003685BB11A784AB1D9888288914205D17D
:103734005878FEF719FC10F0010F03D00023236022
:10374400092038BD2B682360002038BDF8B5C37844
:1037540003B30446C66A00F13007012332463946F2
:103764004078FEF72FFCB8B90023E370236AF31AFC
:10377400A269934212D2A57808E0A3691E440123EA
:10378400324639466078FEF71DFC013D012DF4D820
:103794000020F8BD0020F8BD0120F8BD0020F8BDD0
:1037A40070B5C36A8B4212D004460D46FFF7CEFFB4
:1037B400064668B901232A4604F130016078FEF711
:1037C400E5FB10B101264FF0FF35E56200E000266D
:1037D400304670BD10B504460023C3704FF0FF336C
:1037E400C362FFF7DDFF18BB04F22E20FFF766FE6D
:1037F4004AF6552398421DD194F83030E92B05D070
:10380400236B03F0FF130F4A934215D104F16600B2
:10381400FFF75AFE20F07F400B4B98420ED004F184
:103824008200FFF751FE094B984209D1002010BDD8
:10383400042010BD032010BD022010BD002010BDC7
:10384400022010BDEB009000464154004641543321
:103854002DE9F04784B00E46174600230B60FFF7AE
:103864002FFF051EC0F22C81AA4B53F82540002CD3
:1038740000F02881346007F0FE07237873B1607884
:10388400FEF772FB10F0010F08D1002F00F01C812D
:1038940010F0040F40F01A81002038E10023237057
:1038A400E8B26070FEF754FB10F0010F40F0108195
:1038B4001FB110F0040F40F00D8100212046FFF7E6
:1038C40089FF022815D0002628E004F130002B01DE
:1038D40003F5DF73184403791BB10830FFF7F4FDD7
:1038E40000E0002004AB03EB850343F8100C013522
:1038F40000E00025032DE8D9002504AB03EB850384
:1039040053F8106C26B131462046FFF763FF00E000
:103914000320012802D90135032DEED9042800F033
:10392400DB80012800F2DA8004F13B00FFF7C6FDDA
:10393400B0F5007F40F0D48004F14600FFF7BEFDEF
:10394400804620B904F15400FFF7BEFD8046C4F858
:10395400188094F8409084F8029009F1FF33DBB2A8
:10396400012B00F2BF8008FB09F994F83D506581F2
:10397400002D00F0B9806B1E1D4240F0B78004F1A9
:103984004100FFF79BFD8246208110F00F0F40F0AD
:10399400AF8004F14300FFF791FD074620B904F11D
:1039A4005000FFF791FD074604F13E00FFF786FD46
:1039B4000346002800F09E8009EB000202EB1A1275
:1039C4009742C0F09980BF1AB7FBF5F5002D00F0BF
:1039D40095804FF6F5718D4201D9032700E0022747
:1039E40040F6F5718D4200D8012702356561E66124
:1039F400334423623244A262032F0FD104F15A00EC
:103A0400FFF75CFD00287BD1BAF1000F7AD104F1F5
:103A14005C00FFF759FD6062AD000EE0BAF1000FE3
:103A240072D04B446362022F01D16D0005E005EBB7
:103A3400450305F0010505EB530505F2FF15B8EB49
:103A4400552F63D34FF0FF332361E3608023237149
:103A5400032F2CD104F16000FFF730FD012826D19B
:103A6400711C2046FFF79CFE08BB0023237104F25F
:103A74002E20FFF723FD4AF65523984217D104F16F
:103A84003000FFF721FD244B984210D104F5057056
:103A9400FFF71AFD214B984209D104F50670FFF790
:103AA40013FD206104F50770FFF70EFDE060277039
:103AB4001B4A138801339BB21380E380002026E065
:103AC4000B2024E00C2022E0002020E00A201EE04D
:103AD40003201CE00A201AE0012018E00D2016E063
:103AE4000D2014E00D2012E00D2010E00D200EE05A
:103AF4000D200CE00D200AE00D2008E00D2006E06A
:103B04000D2004E00D2002E00D2000E00D2004B0A3
:103B1400BDE8F08700050020525261417272416194
:103B2400FC0400202DE9F047012975D94369994225
:103B340074D217460C4606460378022B3ED0032B5C
:103B44004FD0012B6CD101EB5108016A01EB5821D4
:103B5400FFF726FE0546002863D106F1300A08F176
:103B64000109C8F3080814F0010407D01AF8083052
:103B740003F00F0343EA0713DBB200E0FBB20AF8D9
:103B840008300123F370316A01EB59213046FFF705
:103B940007FE0546002844D1C9F3080914B1C7F348
:103BA400071206E01AF8093023F00F03C7F30322C3
:103BB4001A430AF809200123F37032E0016A01EB89
:103BC4001421FFF7EDFD054658BB06F130006300F4
:103BD40003F4FF73B9B21844FFF782FC0123F370B6
:103BE4001FE0016A01EBD411FFF7DAFD0546C0B905
:103BF40027F0704706F13003A10001F4FE715C1850
:103C04002046FFF761FC00F0704139432046FFF77E
:103C14006BFC0123F37004E0022502E0022500E0BE
:103C240002252846BDE8F087F8B50668012953D96E
:103C34007369994252D20C463378022B2AD0032B53
:103C440038D0012B4CD101EB5105316A01EB5521E0
:103C54003046FFF7A5FD002844D16F1CC5F30805C5
:103C6400354495F83050316A01EB57213046FFF75F
:103C740097FD002839D1C7F30803334493F8300083
:103C840045EA002014F0010F01D00009F8BDC0F38B
:103C94000B00F8BD316A01EB14213046FFF780FDBB
:103CA40030BB06F13000610001F4FF710844FFF7F6
:103CB40005FCF8BD316A01EBD4113046FFF770FD05
:103CC400C8B906F13003A10001F4FE701844FFF7EF
:103CD400FBFB20F07040F8BD0120F8BD0120F8BDC9
:103CE4000120F8BD4FF0FF30F8BD4FF0FF30F8BDB4
:103CF4004FF0FF30F8BD4FF0FF30F8BD2DE9F04133
:103D04000768B1F5001F3DD206460C4611F01F0F9F
:103D14003BD1316185681DB93B78022B00D97D6A9E
:103D240035B93B89B3EB541F32D97B6AB3611AE0CE
:103D3400B7F80A804FEA48280EE029463046FFF7D4
:103D440073FF0546B0F1FF3F25D0012826D97B69D2
:103D5400984226D2C8EB04044445EED2294638469C
:103D6400FFF7F6FBB0617561B369EBB103EB542364
:103D7400B36107F13003C4F308042344F361002062
:103D8400BDE8F0810220BDE8F0810220BDE8F081A9
:103D94000220BDE8F0810120BDE8F0810220BDE8E9
:103DA400F0810220BDE8F0810220BDE8F08100BF6F
:103DB4002DE9F04107460668884629B9F5687DB1C2
:103DC40073699D420ED20EE0FFF72EFF012846D9FB
:103DD400B0F1FF3F51D0736998424ED3454602E09B
:103DE400012500E001252C46013473699C4202D36D
:103DF400012D37D9022421463846FFF715FF38B183
:103E0400012832D0B0F1FF3F31D0AC42ECD130E0E8
:103E14004FF0FF3221463046FFF784FE034640B997
:103E2400B8F1000F05D0224641463046FFF77AFE2E
:103E3400034673B9F46033697269023A934201D25A
:103E4400013B3361337943F0010333712046BDE80C
:103E5400F081012B10D14FF0FF30BDE8F08101203B
:103E6400BDE8F0810020BDE8F081BDE8F081BDE847
:103E7400F0810020BDE8F0810120BDE8F08100BFA1
:103E8400F8B50E46046801292CD907461146636922
:103E94009E4229D22AB14FF0FF322046FFF742FE5C
:103EA40020BB31463846FFF7BFFE0546F8B101286E
:103EB4001FD0B0F1FF3F1ED0002231462046FFF74D
:103EC40031FED0B92369B3F1FF3F05D0013323613B
:103ED400237943F00103237163692E469D42E0D3A5
:103EE4000020F8BD0220F8BD0220F8BDF8BD002076
:103EF400F8BD0220F8BD0120F8BDF8BD2DE9F84356
:103F04000668036903F120058369002B6DD0B5F5BC
:103F1400001F6DD288460446C5F30807002F5DD103
:103F240001338361416941B93389B3EB551F55D8D6
:103F3400002383610420BDE8F8837389013B13EAFD
:103F440055234BD1FFF770FE8146012853D9B0F1B8
:103F5400FF3F53D07369984239D3B8F1000F04D1AD
:103F64000023A3610420BDE8F88361692046FFF7BC
:103F74001FFF8146002844D0012845D0B0F1FF3FFF
:103F840045D03046FFF7E2FB002843D14FF40072DE
:103F9400002106F13000FFF7BBFA49463046FFF72F
:103FA400D7FAF0624FF000080AE00123F3703046BC
:103FB400FFF7CCFB88BB08F10108F36A0133F36215
:103FC40073899845F1D3F36AC8EB0303F362C4F829
:103FD400149049463046FFF7BBFAA061256130369C
:103FE4003E44E6610020BDE8F8830420BDE8F88380
:103FF4000420BDE8F8830220BDE8F8830120BDE871
:10400400F8830720BDE8F8830220BDE8F883012087
:10401400BDE8F8830120BDE8F8830120BDE8F883FA
:1040240070B5044606680021FFF768FEE8B9A16987
:104034003046FFF7B5FB0546C0B9E0690378B3B174
:10404400C37A03F03F03A371C37A13F0080F05D1B9
:104054000B2204F12001FFF761FA50B10021204640
:10406400FFF74CFF0028E2D070BD70BD70BD042086
:1040740070BD284670BD00BF30B583B004460191C1
:10408400056801E001330193019B93F900202F2A75
:10409400F8D05C2AF6D00022A2601B781F2B08D827
:1040A400802384F82B3011462046FFF727FE034671
:1040B40027E001A92046FFF77BFA034608BB204608
:1040C400FFF7AEFF94F82B20034628B1042818D13B
:1040D40012F0040F12D014E012F0040F11D1A379DE
:1040E40013F0100F0CD005F130012369C3F308035A
:1040F40019442846FFF738FAA060DAE7052300E000
:104104000523184603B030BDF8B504460F460668CB
:104114000021FFF7F3FD0246B8B90025A169304636
:10412400FFF73EFB024680B9E3691B78E52B00D01C
:104134001BB90135BD4201D107E00025012120460C
:10414400FFF7DCFE02460028E8D0042A00D107224B
:104154001046F8BD70B5044606680121FFF7D4FF88
:10416400054690B9A1693046FFF71AFB054660B9C8
:1041740020220021E069FFF7CBF90B2204F1200192
:10418400E069FFF7BBF90123F370284670BD00BF57
:1041940070B50446FFF7DAFA0546002837D12378CC
:1041A400032B2DD12379012B2AD104F130064FF4AE
:1041B400007200213046FFF7ABF94AF6552104F2AC
:1041C4002E20FFF78DF913493046FFF78DF9124978
:1041D40004F50570FFF788F9216904F50670FFF707
:1041E40083F9E16804F50770FFF77EF9E2690132AB
:1041F400E262012331466078FDF7E4FE0023237177
:10420400002211466078FDF7F9FE00B10125284629
:1042140070BD00BF525261417272416110B584B0E9
:1042240001900091144604A840F8041DFFF748FAD1
:10423400002816DB0E4B53F820300BB100221A7005
:10424400019B0BB100221A70019B094A42F82030ED
:104254004BB1012C09D1002201A96846FFF7F8FAF5
:1042640004E00B2002E0002000E0002004B010BDB8
:10427400000500202DE9F0438FB00191002800F0E3
:10428400E0800546164602F03F073A4602A901A817
:10429400FFF7DEFA0446002840F0CE80029B039329
:1042A400019903A8FFF7E8FE044620B99DF93730C9
:1042B400002B00DA062416F01C0F53D044B1042C52
:1042C40003D103A8FFF746FF044647F008070BE0B5
:1042D4009DF8123013F0110F03D116F0040F02D120
:1042E40002E0072400E00824002C4BD117F0080F4B
:1042F40048D0574E31460A980E30FFF7F5F831464C
:104304000A981630FFF7F0F820220A9BDA72029E10
:10431400DDF8288041463046FFF726F98146002221
:1043240041463046FFF732F900210A981C30FFF766
:10433400DBF80122029BDA70B9F1000F22D0029B54
:10434400DE6A0022494603A8FFF79AFD0446C8B96D
:1043540031460298FFF724FA044609F1FF33029A22
:10436400D3600FE074B99DF8123013F0100F06D12A
:1043740016F0020F06D013F0010F02D102E004245C
:1043840000E007244CB917F0080F01D047F04007AC
:10439400029BDB6A2B620A9B6B62002C4CD1029E4F
:1043A400DDF8288041463046FFF7DEF8A86008F1C2
:1043B4001C00FFF789F8E8602E60F388AB802F7447
:1043C40000216974E961696105F128084FF40072FC
:1043D4004046FFF79DF817F0200F2DD0EE685EB32E
:1043E4006E61029B5F897F02A9680BE02846FFF794
:1043F4001BFC0146012800D80224B1F1FF3F00D183
:104404000124F61B0CB9BE42F0D8A961A4B9C6F3C5
:1044140008038BB1029F3846FFF79AF848B100EBC6
:104424005622EA61012341467878FDF7AFFD10B9C1
:1044340002E0022400E001242CB100232B6020467A
:1044440002E0092000E020460FB0BDE8F08300BF81
:10445400000021482DE9F04F83B0044688461546F4
:104464001F4600233B6001A9FFF756F9002840F0DE
:10447400A380607C002840F0A180237C13F0010F0E
:1044840000F09B80E6686369F61AAE42C0F08F8044
:104494002E468CE06369C3F30802002A70D1019AA6
:1044A4005289013A12EA532912D10BB9A06803E0E8
:1044B400A1692046FFF7B8FB012802D802206074E6
:1044C4007CE0B0F1FF3F02D10120607476E0A0618E
:1044D400DDF804A0A1695046FFF73AF8054610B983
:1044E400022060746AE04D445FEA562B25D009EB44
:1044F4000B03BAF80A20934201D9C9EB020B5B46BD
:104504002A4641469AF80100FDF740FD10B101200A
:10451400607453E094F91030002B0BDAE069401B0F
:10452400834507D94FF4007204F1280108EB4020B9
:10453400FEF7E4FF4FEA4B2531E0E26995421ED0D5
:1045440094F91030002B0EDA012304F128019AF8B3
:104554000100FDF737FD10B1012060742EE0237CCB
:1045640003F07F03237401232A4604F128010198F0
:104574004078FDF70BFD10B1012060741EE0E56189
:104584006369C3F30803C3F50075AE4200D2354630
:1045940004F128012A4619444046FEF7AFFFA84417
:1045A40063692B4463613B682B443B60761B002E9C
:1045B4007FF470AF002001E000E0072003B0BDE805
:1045C400F08F00BF30B583B0044601A9FFF7A4F80B
:1045D40000283CD1227C12F0400F39D012F0800F19
:1045E4000CD00123E26904F1280101984078FDF719
:1045F400E9FC70BB237C03F07F032374216A0198D8
:10460400FFF7CEF838BB656AEB7A43F02003EB7210
:10461400A26829462068FEF7B9FFE16805F11C008D
:10462400FEF762FF0D4905F11600FEF75DFF00215C
:1046340005F11200FEF754FF0122019BDA70019884
:10464400FFF7A6FD237C23F04003237403E002E07C
:1046540001E00120FFE703B030BD00BF00002148A6
:1046640010B582B00446FFF7ADFF034638B901A97F
:104674002046FFF751F8034608B900222260184685
:1046840002B010BDF0B583B004460E4601A9FFF791
:1046940043F8002840F0A480657C002D40F0A18000
:1046A400E368B34204D2227C12F0020F00D11E460A
:1046B400636900226261002E5DD0019A57897F02EE
:1046C4006BB1721EB2FBF7F2013BB3FBF7F18A4206
:1046D40005D37A4213406361F61AA16912E0A16816
:1046E40079B92046FFF764FB0146012802D1022074
:1046F400607479E0B0F1FF3F02D10120607473E08F
:10470400A060A16119BB002638E0237C13F0020FDE
:1047140005D02046FFF74CFB014620B91AE020469D
:10472400FFF782FA0146B1F1FF3F02D10120607424
:104734005AE0012903D9019B5B69994202D3022003
:10474400607451E0A16163693B446361F61BBE423E
:10475400DBD800E03E46636933446361C6F3080373
:104764005BB10198FEF7F4FE10B9022060743BE0DF
:1047740000EB562602E0002600E000266369C3F33E
:10478400080313B3E26996421FD094F91030002B4A
:104794000EDA012304F1280101984078FDF712FC98
:1047A40010B1012060741FE0237C03F07F032374A5
:1047B4000123324604F1280101984078FDF7E6FB15
:1047C40010B1012060740FE0E6616369E26893420E
:1047D40009D9E360237C43F040032374284603E0B3
:1047E40002E0284600E0284603B0F0BD2DE9F04180
:1047F40082B080460E4617460546002410E06B46FC
:10480400012201A93846FFF725FE009B012B0CD19C
:104814009DF904306A1C2B7001340A2B04D0154610
:10482400731E9C42EBDB00E0154600232B700CB991
:10483400184600E0404602B0BDE8F08110B50028FB
:1048440014BF04460124204600F018F830B900F0E3
:1048540007F808B9FCF778FF8047F4E710BD0000BB
:10486400024B1868BFF35F8F704700BF0405002038
:10487400014B1868704700BF88000020024B0146B6
:10488400186800F047B800BF8800002030B5002940
:104894003CD051F8042C0B1F1D49002AB8BF9B18AB
:1048A4000A680C4612B95A600B6030BD9A420DD9A1
:1048B40019685818824201BF1068526809181960B3
:1048C4005A60236030BD994203D80A4651680029D2
:1048D400F9D1146815199D420AD11B682344D018D4
:1048E4008142136012D10868034413604B680CE0E2
:1048F40002D90C23036030BD18681C18A14201BF03
:104904000C684968001918605960536030BD00BFD5
:104914000C05002070B5CD1C25F0030508350C2DC1
:1049240038BF0C25002D064603DA0C233360002023
:1049340070BDA942F9D81F4B1C681A462146A1B183
:104944000B685B1B0ED40B2B03D90B60CC18CD501A
:104954001EE08C420BBF63684B681360636018BF32
:104964000C4615E00C464968E9E7134C23681BB96B
:10497400304600F023F820602946304600F01EF847
:10498400431CD2D0C41C24F00304A0420AD12560E5
:1049940004F10B00231D20F00700C31A09D05A426A
:1049A400E25070BD211A304600F008F80130EED113
:1049B400BBE770BD0C0500200805002038B5064C87
:1049C4000023054608462360FCF7C8FE431C02D1B9
:1049D400236803B12B6038BD1005002010F8012BAB
:1049E40011F8013B012A28BF9A42F7D0D01A704728
:1049F400034613F8012B002AFBD1181A013870471B
:104A040030B582B1451E013915F8013F11F8014F47
:104A1400A34206D1EC431444E04201D0002BF3D16D
:104A24001C46181B30BD104630BD30B5141E05465B
:104A34009BB0184604DA8B232B604FF0FF301DE047
:104A44004FF40273ADF80C300CBF234604F1FF336E
:104A5400029305934FF6FF7300910491ADF80E3065
:104A640002461E9B6946284600F072F8431CBCBFF0
:104A74008B232B6014B1009B00221A701BB030BD35
:104A840007B5009313460A46014603480068FFF73A
:104A9400CCFF03B05DF804FB880000202DE9F0474B
:104AA4008E6882469E420C46914698463ED88A8934
:104AB40012F4906F3AD02568096902236F1A656968
:104AC40005EB450595FBF3F57B1C43449D4238BF3C
:104AD4001D4653050FD52946FFF71CFF064698B11E
:104AE4003A46216900F0D2FAA38923F4906343F093
:104AF4008003A38113E02A4600F0EEFA064670B95B
:104B040021695046FFF7C2FE0C23CAF80030A3897E
:104B14004FF0FF3043F04003A381BDE8F0872661E6
:104B24003E44266046466561ED1BA560464528BFA8
:104B3400464649463246206800F0B3FAA36800208E
:104B44009B1BA36023681E442660BDE8F087000019
:104B54002DE9F04F9DB003938B8980461C060D46CA
:104B640016460DD50B695BB94021FFF7D3FE2860CB
:104B7400286118B90C23C8F80030CDE040236B61DC
:104B84000023099320238DF82930DFF89CB13023CA
:104B94008DF82A3037463C4614F8013B1BB9B7EB75
:104BA400060910D003E0252BF9D02746F3E74B463E
:104BB400324629464046FFF771FF013000F0A780D6
:104BC400099B4B4409933B78002B00F0A080002301
:104BD4004FF0FF3204930793059206938DF85330F8
:104BE4001A930126052221784E4800F041FA671CE9
:104BF400049B38B14B4A3C46801A06FA00F018432D
:104C04000490EFE7D90644BF20228DF853201A07F9
:104C140044BF2B228DF8532022782A2A03D0079AE6
:104C240000210A200BE0039A111D12680391002A47
:104C340010DA524243F00200079204900BE0274638
:104C44003B780134303B092B03D800FB02320121AD
:104C5400F5E701B107923B782E2B1ED17B782A2BE6
:104C64000AD1039B02371A1D1B680392002BB8BF9D
:104C74004FF0FF33059310E0002319460593781C89
:104C84000A2407463A780130303A092A03D804FB4B
:104C940001210123F5E703B1059103223978224864
:104CA40000F0E6F940B14023CBEB000003FA00F03A
:104CB400049B013718430490397806221B487E1C54
:104CC4008DF8281000F0D4F988B1194B33B9039B3F
:104CD400073323F007030833039314E003AB009373
:104CE4002A46144B04A94046AFF3008007E003AB07
:104CF40000932A460F4B04A9404600F093F8B0F104
:104D0400FF3F824603D0099B5344099342E7AB8992
:104D14005B0601D4099801E04FF0FF301DB0BDE8F7
:104D2400F08F00BF965700089C570008A057000852
:104D340000000000A14A00082DE9F04791461F46F3
:104D44000A698B6806469342B8BF1346C9F8003017
:104D540091F843200C46DDF8208012B10133C9F8E4
:104D640000302368990642BFD9F800300233C9F8ED
:104D74000030256815F0060510D104F1190A07E082
:104D84000123524639463046C04701301AD0013516
:104D9400E368D9F800209B1A9D42F1DB94F8433074
:104DA4002268003318BF012392060FD5E118302082
:104DB40081F843005A1C94F845102244023382F8C7
:104DC400431003E04FF0FF30BDE8F08704F14302E5
:104DD40039463046C0470130F4D02268D9F8005033
:104DE400E36802F00602042A08BF5D1B2269A36877
:104DF4000CBF25EAE57500259342C4BF9B1AED1844
:104E04004FF000091A344D4509D001232246394692
:104E14003046C0470130D5D009F10109F3E700203D
:104E2400BDE8F0872DE9F04317460A7E85B06E2A67
:104E3400984606460C460C9B01F1430E00F0AE80EA
:104E440011D8632A22D009D8002A00F0BB80582A3E
:104E540040F0CA8081F84520834955E0642A1ED079
:104E6400692A1CD0C0E0732A00F0B08009D86F2AE8
:104E74002ED0702A40F0B8800A6842F020020A60FE
:104E84003EE0752A24D0782A3AD0ADE01A6801F1C0
:104E94004205111D1960136884F84230A8E02168A6
:104EA4001A6811F0800F02D0111D196008E011F08A
:104EB400400F02F10401196002D0B2F9003000E0A1
:104EC4001368002B3CDA2D225B4284F8432037E040
:104ED40021681A6811F0800F02D0111D196007E0D3
:104EE40011F0400F02F10401196001D0138800E0B1
:104EF4001368227E5C496F2A14BF0A2208221BE031
:104F040078225A4984F845202268186812F0800FE4
:104F140000F104051D6003D1550601D5038800E0A6
:104F24000368D00744BF42F0200222601BB9226804
:104F340022F0200222601022002084F8430001E0C5
:104F440049490A226568002DA56008DB206820F025
:104F5400040020602BB9002D7DD175460CE0002B98
:104F640079D07546B3FBF2F002FB1033CB5C05F845
:104F7400013D03460028F5D1082A0BD12368DA073E
:104F840008D5236962689A42DEBF302305F8013CE4
:104F940005F1FF35C5EB0E0323612EE008681A689E
:104FA40010F0800F496903D0101D1860136808E0E1
:104FB40010F0400F02F104001860136801D019804A
:104FC40000E0196000232361754616E01A68111D7C
:104FD4001960156800216268284600F049F808B194
:104FE400401B6060636804E004F1420584F84220D9
:104FF40001232361002384F84330CDF800803B462D
:1050040003AA21463046FFF797FE013002D14FF044
:10501400FF3026E023692A4639463046C04701302E
:10502400F5D023689B0710D5002504F1190907E082
:1050340001234A4639463046C0470130E7D001359E
:10504400E368039A9B1A9D42F2DBE068039B984253
:10505400B8BF184605E00B7804F1420584F84230E5
:105064008AE705B0BDE8F083A7570008B8570008E1
:1050740010B5C9B202449042034605D01C780130F1
:105084008C42F8D1184610BD002010BD10B5431E47
:105094000A44914204D011F8014B03F8014FF8E798
:1050A40010BD884210B501EB020301D8421E0BE08B
:1050B4009842FBD28118D21AD34204D013F8014D7E
:1050C40001F8014DF8E710BD994204D011F8014BE5
:1050D40002F8014FF8E710BDF8B5074615460E462D
:1050E40021B91146BDE8F840FFF714BC1AB9FFF71F
:1050F400CDFB2846F8BD00F015F885420ED92946A7
:105104003846FFF707FC044650B131462A46FFF7FC
:10511400BDFF31463846FFF7B9FB01E03046F8BD24
:105124002046F8BD51F8040C0028BEBF091851F8F8
:10513400043CC018043870472E2E2F73797374659D
:105144006D2F7372632F73746D333266312D7374E4
:10515400647065726970682F6D6973632E630000F3
:105164002E2E2F73797374656D2F7372632F73747E
:105174006D333266312D7374647065726970682F93
:1051840073746D3332663130785F6461632E63000B
:105194002E2E2F73797374656D2F7372632F73744E
:1051A4006D333266312D7374647065726970682F63
:1051B40073746D3332663130785F646D612E6300D1
:1051C4002E2E2F73797374656D2F7372632F73741E
:1051D4006D333266312D7374647065726970682F33
:1051E40073746D3332663130785F6770696F2E6324
:1051F400000000002E2E2F73797374656D2F737267
:10520400632F73746D333266312D737464706572F9
:105214006970682F73746D3332663130785F7263EE
:10522400632E63002E2E2F73797374656D2F737242
:10523400632F73746D333266312D737464706572C9
:105244006970682F73746D3332663130785F7364BC
:10525400696F2E63000000002E2E2F73797374651E
:105264006D2F7372632F73746D333266312D7374C3
:10527400647065726970682F73746D33326631308F
:10528400785F74696D2E630061626F727428292CD3
:105294002065786974696E672E2E2E003A74740046
:1052A4002F746D70000000002C2066756E637469A5
:1052B4006F6E3A2000000000617373657274696F49
:1052C4006E2022257322206661696C65643A20662B
:1052D400696C6520222573222C206C696E6520255B
:1052E40064257325730A00006173736572745F70BB
:1052F4006172616D2829206661696C65643A206673
:10530400696C6520222573222C206C696E6520252A
:10531400640A00006D61696E28617267633D2564EB
:105324002C20617267763D5B000000002C20000099
:1053340022257322000000005D293B0A00000000C2
:10534400537461636B206672616D653A0A000000F4
:10535400205230203D2020253038580A000000001B
:10536400205231203D2020253038580A000000000A
:10537400205232203D2020253038580A00000000F9
:10538400205233203D2020253038580A00000000E8
:1053940020523132203D20253038580A00000000C8
:1053A400204C52203D2020253038580A00000000AF
:1053B400205043203D2020253038580A00000000AA
:1053C40020505352203D20253038580A0000000058
:1053D4004653522F4641523A0A0000002043465396
:1053E40052203D2020253038580A000020484653DA
:1053F40052203D2020253038580A000020444653CE
:1054040052203D2020253038580A000020414653C0
:1054140052203D2020253038580A0000204D4D46AA
:105424004152203D20253038580A00002042464190
:1054340052203D2020253038580A00004D697363FE
:105444000A000000204C522F4558435F52455455E2
:10545400524E3D20253038580A0000005B486172E6
:10546400644661756C745D0A000000005B427573EC
:105474004661756C745D0A005B55736167654661CE
:10548400756C745D0A000000666D742000000000F5
:10549400646174610000000053445F496E697420C4
:1054A4006661696C65643A2025750A0053445F4758
:1054B400657443617264496E666F206661696C65E8
:1054C400643A2025750A0000534420494E464F2073
:1054D4004F4B210A43617061636974793A202575E1
:1054E4000A00000053797374656D20636C6F636BFD
:1054F4003A20257520487A0A000000003000000098
:105504004D6F756E74206661696C65642120257524
:105514000A00000068656C6C6F2E747874000000DB
:1055240062656533326B2E7761760000417564697C
:105534006F466F726D61743A2025750A0000000091
:105544004368616E6E656C733A2025750A0000002D
:1055540053616D706C65526174653A2025750A005B
:1055640042797465526174653A2025750A00000019
:10557400426C6F636B416C69676E3A2025750A0053
:105584004269747350657253616D706C653A20257D
:10559400750A00004461746153697A653A2025757F
:1055A4000A0000005265616479210A00474F2049CE
:1055B400444C450A000000004946434F4E44202510
:1055C400750A0000415050434D442025750A0000DF
:1055D400415050434D44322025750A005057524FD4
:1055E4004E5F5354415254200A0000005057524F0A
:1055F4004E200A00494E4954200A0000494E464FA5
:105604002025750A0000000053454C4543542025CD
:10561400750A0000444D412025750A00222A2B2CCE
:105624003A3B3C3D3E3F5B5D7C7F000000202020F8
:10563400202020202020282828282820202020203E
:10564400202020202020202020202020208810100E
:10565400101010101010101010101010100404046A
:105664000404040404040410101010101010414128
:105674004141414101010101010101010101010116
:10568400010101010101010110101010101042422A
:1056940042424242020202020202020202020202E6
:1056A4000202020202020202101010102000000086
:1056B40000000000000000000000000000000000E6
:1056C40000000000000000000000000000000000D6
:1056D40000000000000000000000000000000000C6
:1056E40000000000000000000000000000000000B6
:1056F40000000000000000000000000000000000A6
:105704000000000000000000000000000000000095
:105714000000000000000000000000000000000085
:105724000000000000000000000000000000000075
:105734000000000000000000000000000000000065
:105744000000000000000000000000000000000055
:105754000000000000000000000000000000000045
:105764000000000000000000000000000000000035
:105774000000000000000000000000000000000025
:105784000000000000000000000000000000000015
:105794004300232D302B2000686C4C006566674560
:1057A4004647003031323334353637383941424395
:1057B4004445460030313233343536373839616246
:0557C40063646566004E
:1057CC0078563412000000000000000001020304AF
:1057DC000607080900A24A0401FFFFFF02000000AF
:1057EC002AFFFFFF30560008000000003457000865
:1057FC005457000874570008000000000000000017
:10580C000000000000000000945700080000000099
:10581C00000000000000000000000000000000007C
:10582C00000000000000000000000000000000006C
:10583C00000000000000000000000000000000005C
:10584C000000000000000000280000203254769870
:04000005080001E509
:00000001FF
