:020000040800F2
:1000000000C00020F90200080103000805030008F1
:10001000790300087D030008C50300080000000004
:100020000000000000000000000000000D040008B7
:100030001104000800000000150400084D590008D4
:1000400029040008290400082904000829040008DC
:1000500029040008290400082904000829040008CC
:1000600029040008290400082904000829040008BC
:1000700029040008290400082904000829040008AC
:10008000290400082904000829040008290400089C
:10009000290400082904000829040008290400088C
:1000A000290400082904000829040008290400087C
:1000B000290400082904000829040008290400086C
:1000C000290400082904000829040008290400085C
:1000D00029040008290400082D6A000829040008E2
:1000E000290400082904000829040008290400083C
:1000F000290400082904000829040008290400082C
:10010000290400082904000829040008290400081B
:10011000290400082904000829040008290400080B
:100120002904000829040008756E00082904000845
:1001300000000000000000000000000000000000BF
:1001400000000000000000000000000000000000AF
:10015000000000000000000000000000000000009F
:10016000000000000000000000000000000000008F
:10017000000000000000000000000000000000007F
:10018000000000000000000000000000000000006F
:10019000000000000000000000000000000000005F
:1001A000000000000000000000000000000000004F
:1001B000000000000000000000000000000000003F
:1001C000000000000000000000000000000000002F
:1001D000000000000000000000000000000000001F
:1001E0005FF8E0F100B583B002F050FD304B314ACA
:1001F0001360314A1360314B314A03E011681960D2
:10020000043304322F498B42F8D32A4B1A682E4B01
:100210009A4204D1284B1A682C4B9A4200D0FEE730
:10022000234B2B4A13602B4A13602B4B02E0002216
:100230001A600433294A9342F9D3254B1B6813B93A
:10024000244B1B6803B1FEE702F02CFD694601A8B0
:1002500002F048FC224C234B1C1BA410002504E098
:100260001F4B53F8253098470135AC42F8DC1E4C43
:100270001E4B1C1BA410002504E01B4B53F825301B
:1002800098470135AC42F8DC0099019807F04AFC28
:100290000546174C174B1C1BA41004E0013C144BE3
:1002A00053F824309847002CF8DC284602F0B6FBBF
:1002B000BABADECA00000020E000002000000020E2
:1002C00000B90008E40000207856341232547698C1
:1002D000E8000020A80A0020E8000020AC0A002066
:1002E000540400085404000854040008740400086E
:1002F000740400088004000808B5FFF773FF00BF0E
:1003000000BEFEE71EF0040F0CBFEFF30880EFF312
:1003100009807146414A10472DE9F04182B00446F8
:100320008846134B5E6B9F6B9D6A1B6B13F0020F2D
:100330000DD00F4BDB6A002B09DA4BF6AB6102F0F4
:100340002DFD20B14FF00042094BDA620CE0094864
:1003500002F03EFCCDF800803B463246294620465E
:1003600002F0A4FC00BEFEE702B0BDE8F08100BFD1
:1003700000ED00E0DCB3000800BEFEE71EF0040F55
:100380000CBFEFF30880EFF309807146244A104751
:100390002DE9F04182B004468846084B5E6B9F6BA6
:1003A0009D6A074802F014FCCDF800803B463246B7
:1003B0002946204602F07AFC00BEFEE700ED00E090
:1003C000ECB300081EF0040F0CBFEFF30880EFF34E
:1003D00009807146134A10472DE9F04182B0044666
:1003E0008846084B5E6B9F6B9D6A074802F0F0FBE6
:1003F000CDF800803B4632462946204602F056FCA6
:1004000000BEFEE700ED00E0F8B3000800BEFEE726
:1004100000BEFEE700BEFEE77047000019030008BB
:0C04200091030008D903000800BEFEE7AD
:10042C0000B9000800000020E400002000B900081A
:10043C000000000000000000E8000020AC0A0020D2
:10044C000000000000000000F55A00088D62000852
:10045C00956E0008AD7C0008117D0008D57D000864
:10046C00597E00081D7F0008055B00089D6200088E
:04047C00BD7C00083B
:1004800038B505460C460B689BB1042B11D00C2BDC
:100490000FD0142B0DD01C2B0BD0242B09D02C2BC0
:1004A00007D0342B05D03C2B03D07921384802F0FB
:1004B00085FB63683BB1402B05D0802B03D07A21AC
:1004C000334802F07BFBA368002B46D0B3F5807F56
:1004D00043D0B3F5007F40D0B3F5407F3DD0B3F5B6
:1004E000806F3AD0B3F5A06F37D0B3F5C06F34D07A
:1004F000B3F5E06F31D0B3F5006F2ED0B3F5106FC8
:100500002BD0B3F5206F28D0B3F5306F25D023B3AF
:10051000B3F5807F21D0B3F5007F1ED0B3F5407FC7
:100520001BD0B3F5806F18D0B3F5A06F15D0B3F51D
:10053000C06F12D0B3F5E06F0FD0B3F5006F0CD0E1
:10054000B3F5106F09D0B3F5206F06D0B3F5306F57
:1005500003D07B210E4802F031FBE3682BB1022B64
:1005600003D07C210A4802F029FB0A490B6840F6B7
:10057000FE70A84023EA0002206863681843A3685D
:100580001843E3681843A8401043086038BD00BF13
:1005900068B000080074004000230360436083607B
:1005A000C360704738B50C46054628B1102803D003
:1005B000B0210D4802F002FB012C03D9B1210A48F9
:1005C00002F0FCFA3CB1094A1168012303FA05F56F
:1005D0000D43156038BD05490B68012202FA05F587
:1005E00023EA05050D6038BD68B0000800740040BE
:1005F00038B50C46054628B1102803D0EC210E482A
:1006000002F0DCFA012C03D9ED210B4802F0D6FAF6
:1006100044B10A4A11684FF4805303FA05F50D43BB
:10062000156038BD05490B684FF4805202FA05F594
:1006300023EA05050D6038BD68B00008007400406D
:1006400010B504464F4B984225D01433984222D01F
:10065000143398421FD0143398421CD0143398425C
:1006600019D01433984216D01433984213D003F59E
:10067000627398420FD0143398420CD014339842CE
:1006800009D01433984206D01433984203D06F2116
:100690003D4802F093FA236823F001031B041B0C6E
:1006A0002360002323606360A360E360354B9C42BA
:1006B00005D1364A536843F00F03536010BD344BE5
:1006C0009C4205D1314A536843F0F003536010BD9A
:1006D000304B9C4205D12D4A536843F470635360FC
:1006E00010BD2D4B9C4205D1284A536843F47043FA
:1006F000536010BD294B9C4205D1244A536843F4F2
:100700007023536010BD264B9C4205D11F4A53688D
:1007100043F47003536010BD224B9C4205D11B4A29
:10072000536843F07063536010BD1F4B9C4205D16A
:100730001E4A536843F00F03536010BD1C4B9C428C
:1007400005D11A4A536843F0F003536010BD194BAA
:100750009C4205D1154A536843F47063536010BD41
:10076000154B9C4205D1114A536843F470435360C2
:1007700010BD124B9C4204D10C4A536843F47023C1
:10078000536010BD0800024098B00008000002400D
:100790001C00024030000240440002405800024069
:1007A0006C00024080000240080402400004024045
:1007B0001C04024030040240440402405804024039
:1007C00038B505460C46504B984225D01433984214
:1007D00022D0143398421FD0143398421CD01433C3
:1007E000984219D01433984216D01433984213D03B
:1007F00003F5627398420FD0143398420CD014332F
:10080000984209D01433984206D01433984203D04A
:10081000CF213E4802F0D2F9A368102B04D01BB1BF
:10082000D0213A4802F0CAF9E368013B4FF6FE7264
:10083000934203D9D121354802F0C0F92369402BF6
:1008400004D01BB1D221314802F0B8F96369802B82
:1008500004D01BB1D3212D4802F0B0F9A3694BB1EC
:10086000B3F5807F06D0B3F5007F03D0D4212748AD
:1008700002F0A4F9E3694BB1B3F5806F06D0B3F58C
:10088000006F03D0D521214802F098F9236A202B6C
:1008900004D01BB1D6211D4802F090F9636AB3F56C
:1008A000405F0AD0B3F5005F07D0B3F5805F04D096
:1008B0001BB1D721154802F081F9A36AB3F5804F27
:1008C00004D01BB1D821114802F078F92B6823F429
:1008D000FF4222F07002A168236A19432369194379
:1008E00063691943A3691943E3691943636A1943A7
:1008F000A36A0B4313432B60E3686B602368AB6010
:100900006368EB6038BD00BF0800024098B0000883
:1009100038B504460D461F4B984226D014339842F2
:1009200023D01433984220D0143398421DD014336E
:1009300098421AD01433984217D01433984214D0E6
:1009400003F56273984210D0143398420DD01433DB
:1009500098420AD01433984207D01433984204D0F6
:1009600040F229110C4802F029F9012D04D94FF465
:100970009571094802F022F925B1236843F001037B
:10098000236038BD236823F001031B041B0C236084
:1009900038BD00BF0800024098B0000870B504469A
:1009A0000D461646214B984226D01433984223D048
:1009B0001433984220D0143398421DD014339842F7
:1009C0001AD01433984217D01433984214D003F538
:1009D0006273984210D0143398420DD01433984269
:1009E0000AD01433984207D01433984204D040F20E
:1009F00049110F4802F0E2F835F00E0300D125B995
:100A00004FF4A5710A4802F0D9F8012E04D940F23A
:100A10004B11074802F0D2F81EB123681D43256030
:100A200070BD236823EA0505256070BD08000240FB
:100A300098B0000810B50446431E012B40F29B807D
:100A4000042800F09880082800F09580102800F015
:100A50009280202800F08F80402800F08C80802831
:100A600000F08980B0F5807F00F08580B0F5007FD0
:100A700000F08180B0F5806F7DD0B0F5006F7AD046
:100A8000B0F5805F77D0B0F5005F74D0B0F5804FDF
:100A900071D0B0F5004F6ED0B0F5803F6BD0B0F59F
:100AA000003F68D0B0F5802F65D0B0F5002F62D040
:100AB000B0F5801F5FD0B0F5001F5CD0B0F5800F9F
:100AC00059D0B0F5000F56D0B0F1807F53D0B0F1BF
:100AD000007F50D0B0F1806F4DD0B0F1006F4AD0A0
:100AE0002C4B984247D00133984244D0023398426D
:100AF00041D0043398423ED0083398423BD0103363
:100B0000984238D02033984235D04033984232D082
:100B1000803398422FD003F5807398422BD003F591
:100B20000073984227D003F58063984223D0B0F138
:100B3000102F20D003F5C05398421CD003F500536A
:100B4000984218D003F58043984214D003F500432F
:100B5000984210D003F5803398420CD003F500334F
:100B6000984208D003F58023984204D040F2B71190
:100B7000094802F023F814F0805F02D0074B1B688D
:100B800001E0074B1B68234201D0012010BD00206B
:100B900010BD00BF0100001098B000080004024022
:100BA0000000024010B5044610F0704F02D0094B0F
:100BB000034003B924B940F20E21074801F0FEFFBB
:100BC00014F0805F02D0054B5C6010BD044B5C608C
:100BD00010BD00BF0000F0EF98B000080004024014
:100BE0000000024010B50446431E012B40F29B80DA
:100BF000042800F09880082800F09580102800F064
:100C00009280202800F08F80402800F08C8080287F
:100C100000F08980B0F5807F00F08580B0F5007F1E
:100C200000F08180B0F5806F7DD0B0F5006F7AD094
:100C3000B0F5805F77D0B0F5005F74D0B0F5804F2D
:100C400071D0B0F5004F6ED0B0F5803F6BD0B0F5ED
:100C5000003F68D0B0F5802F65D0B0F5002F62D08E
:100C6000B0F5801F5FD0B0F5001F5CD0B0F5800FED
:100C700059D0B0F5000F56D0B0F1807F53D0B0F10D
:100C8000007F50D0B0F1806F4DD0B0F1006F4AD0EE
:100C90002C4B984247D00133984244D002339842BB
:100CA00041D0043398423ED0083398423BD01033B1
:100CB000984238D02033984235D04033984232D0D1
:100CC000803398422FD003F5807398422BD003F5E0
:100CD0000073984227D003F58063984223D0B0F187
:100CE000102F20D003F5C05398421CD003F50053B9
:100CF000984218D003F58043984214D003F500437E
:100D0000984210D003F5803398420CD003F500339D
:100D1000984208D003F58023984204D040F259212C
:100D2000094801F04BFF14F0805F02D0074B1B68AD
:100D300001E0074B1B68234201D0012010BD0020B9
:100D400010BD00BF0100001098B000080004024070
:100D50000000024010B5044610F0704F02D0094B5D
:100D6000034003B924B940F2AF21074801F026FF40
:100D700014F0805F02D0054B5C6010BD044B5C60DA
:100D800010BD00BF0000F0EF98B000080004024062
:100D900000000240F8B505460C46464B98421BD071
:100DA00003F58063984217D003F58063984213D00F
:100DB00003F5806398420FD003F5806398420BD00F
:100DC00003F58063984207D003F58063984203D00F
:100DD000B221394801F0F2FEE3788BB1042B0FD039
:100DE000282B0DD0482B0BD0142B09D0102B07D05B
:100DF0001C2B05D0182B03D0B3212F4801F0DEFEA9
:100E000023881BB9B4212C4801F0D8FEE37803F005
:100E10000F06304613F0100F0AD0A378013BDBB267
:100E2000022B03D9BB21244801F0C8FEA07830432F
:100E30002378E3B12E68002316E001229A4021882E
:100E400032EA01010FD199000F278F4026EA0706E9
:100E500000FA01F10E43E178282901D16A6102E02C
:100E6000482900D12A610133072BE6D92E60238857
:100E7000FF2B1ED96E68002318E003F10801012240
:100E80008A40218832EA01010FD199000F278F4053
:100E900026EA070600FA01F10E43E178282900D17D
:100EA0006A61E178482900D12A610133072BE4D92E
:100EB0006E60F8BD00080140C8B0000838B50446AF
:100EC0000D462A4B98421CD003F58063984218D0F7
:100ED00003F58063984214D003F58063984210D0E4
:100EE00003F5806398420CD003F58063984208D0E4
:100EF00003F58063984204D04FF48F711C4801F0D1
:100F00005DFE6B1E9BB2012B28D9042D26D0082D27
:100F100024D0102D22D0202D20D0402D1ED0802D69
:100F20001CD0B5F5807F19D0B5F5007F16D0B5F58A
:100F3000806F13D0B5F5006F10D0B5F5805F0DD080
:100F4000B5F5005F0AD0B5F5804F07D0B5F5004F75
:100F500004D040F21F11064801F030FEA3681D4284
:100F600001D0012038BD002038BD00BF000801407D
:100F7000C8B0000838B504460D46144B98421CD042
:100F800003F58063984218D003F58063984214D02B
:100F900003F58063984210D003F5806398420CD02B
:100FA00003F58063984208D003F58063984204D02B
:100FB00040F26911064801F001FE25B94FF4B57100
:100FC000034801F0FBFD256138BD00BF000801406A
:100FD000C8B0000838B504460D46144B98421CD0E2
:100FE00003F58063984218D003F58063984214D0CB
:100FF00003F58063984210D003F5806398420CD0CB
:1010000003F58063984208D003F58063984204D0CA
:1010100040F27911064801F0D1FD25B94FF4BD71B8
:10102000034801F0CBFD656138BD00BF00080140F9
:10103000C8B00008F0B587B004460D46544B98423E
:1010400007D003F58063984203D0C621514801F0D0
:10105000B5FD2B68013B504A934203D9C7214D4847
:1010600001F0ACFDAB883BB1022B05D00A2B03D0BD
:10107000C821484801F0A2FDEB88B3F5804F07D0A6
:101080004BF6FF72934203D0C921424801F096FD0E
:101090002B89B3F5806F03D3CA213E4801F08EFD42
:1010A0006B89B3F5806F04D01BB1CB21394801F0B7
:1010B00085FDAB89B3F5804F06D0B3F5404F03D023
:1010C000CC21344801F07AFDA688B6B226F03F065E
:1010D000B6B201A800F04AFA03983049A1FB0031EA
:1010E000890C8FB23E43A680228892B222F0010280
:1010F00092B222802B682A4A934209D85B00B0FB47
:10110000F3F39BB2032B00D804230137278427E095
:10111000EE884BF6FF72964205D103EB4302B0FB1B
:10112000F2F39BB208E003EB830303EB8303B0FB12
:10113000F3F39BB243F48043C3F30B020AB943F0C9
:10114000010343F400434FF4967201FB02F1154A88
:1011500082FB0102C917C1EBA211013189B22184BE
:10116000A38323889BB243F00103238023889BB28F
:1011700023F4816323F00203A9886A890A43134395
:101180002380AA892B891343238107B0F0BD00BFB8
:1011900000540040FCB000087F1A060083DE1B43A9
:1011A000A0860100D34D621038B504460D46104BA1
:1011B000984208D003F58063984204D04FF4A97197
:1011C0000C4801F0FBFC012D04D940F253110948F1
:1011D00001F0F4FC2DB123889BB243F0010323807E
:1011E00038BD23889BB223F001039BB2238038BD16
:1011F00000540040FCB0000838B504460D46104BC2
:10120000984208D003F58063984204D04FF4CD7122
:101210000C4801F0D3FC012D04D940F29B11094880
:1012200001F0CCFC2DB123889BB243F48073238062
:1012300038BD23889BB223F480739BB2238038BDD2
:1012400000540040FCB0000838B504460D46104B71
:10125000984208D003F58063984204D04FF4D971C6
:101260000C4801F0ABFC012D04D940F2B311094840
:1012700001F0A4FC2DB123889BB243F400732380BA
:1012800038BD23889BB223F400739BB2238038BD02
:1012900000540040FCB0000838B504460D46104B21
:1012A000984208D003F58063984204D04FF4E5716A
:1012B0000C4801F083FC012D04D940F2CB11094800
:1012C00001F07CFC2DB123889BB243F48063238022
:1012D00038BD23889BB223F480639BB2238038BD42
:1012E00000540040FCB0000838B505460C46074BDA
:1012F000984208D003F58063984204D040F255210B
:10130000034801F05BFCA4B22C8238BD00540040BD
:10131000FCB0000810B50446074B984208D003F50E
:101320008063984204D040F26221044801F046FCF8
:10133000208AC0B210BD00BF00540040FCB00008BD
:1013400070B505460C4616460D4B984208D003F57D
:101350008063984204D04FF41D710A4801F02EFCBE
:10136000012E04D940F27521064801F027FC16B180
:1013700044F0010401E004F0FE04A4B22C8270BD2C
:1013800000540040FCB0000838B505460C462F4B11
:10139000984208D003F58063984204D04FF48761E7
:1013A0002B4801F00BFC2B4B9C4240D0B4F1021FA8
:1013B0003DD0294B9C423AD0B4F5020F37D0B4F55A
:1013C000901F34D0254B9C4231D003F500039C4242
:1013D0002DD0A3F5E0039C4229D0214B9C4226D07E
:1013E00003F500039C4222D0A3F5E0039C421ED0EB
:1013F000102C1CD01B4B9C4219D01B4B9C4216D06E
:101400001A4B9C4213D03E339C4210D0184B9C4246
:101410000DD0043B9C420AD0164B9C4207D0B4F539
:10142000806F04D040F23941094801F0C7FBAB8A14
:101430009BB22A8B43EA024323F07F4334EA03033F
:1014400001D1012038BD002038BD00BF005400404C
:10145000FCB0000882000600800086004000020008
:101460008400060001000300820007000200030060
:10147000840007000800030030B583B005460C4621
:10148000002301930093364B984208D003F5806304
:10149000984204D040F29E41324801F08FFBB4F5EF
:1014A000000F45D0B4F5800F42D0B4F5001F3FD0F7
:1014B000B4F5801F3CD0B4F5802F39D0B4F5003F8F
:1014C00036D0B4F5803F33D0274B9C4230D0A3F5C3
:1014D00080439C422CD0B4F1102F29D0A3F5605347
:1014E0009C4225D0A3F580639C4221D0A3F50073D4
:1014F0009C421DD0A3F580739C4219D0803B9C4236
:1015000016D0403B9C4213D0303B9C4210D0083B4D
:101510009C420DD0043B9C420AD0023B9C4207D027
:10152000013B9C4204D040F29F410E4801F046FB33
:101530000095230F019324F07F44019B1BB1009B76
:101540001433009303E0240C009B18330093009B9A
:101550001B681C4201D0012000E0002003B030BD18
:1015600000540040FCB000080080001010B4294B6B
:101570005B6803F00C03042B05D0082B06D013BBCB
:10158000254B036021E0244B03601EE0214A536891
:101590005268C3F38343023312F4803F04D11F4ADD
:1015A00002FB03F3036010E01A4A526812F4003F92
:1015B00004D01A4A02FB03F3036006E0164A02FB5A
:1015C00003F3036001E0144B036012494B68C3F35B
:1015D0000313134CE35CDAB20368D34043604A68F8
:1015E000C2F30222A25CD2B223FA02F282604A68FB
:1015F000C2F3C222A25CD2B2D340C3604A68C2F333
:10160000813208498A5CD2B2B3FBF2F3036110BCA9
:10161000704700BF0010024000127A0000093D0030
:10162000080000200400002038B504460D4620F4D0
:10163000AA6323F0070303B920B940F22B410B48FA
:1016400001F0BCFA012D04D940F22C41074801F009
:10165000B5FA25B1064A53691C43546138BD044AA2
:10166000536923EA0404546138BD00BF2CB100085B
:101670000010024038B504460D460E4B034003B936
:1016800020B940F24A410C4801F098FA012D04D9E2
:1016900040F24B41084801F091FA25B1074A93699D
:1016A0001C43946138BD054A936923EA040494619C
:1016B00038BD00BF0200C0FF2CB10008001002407E
:1016C00038B504460D460E4B184200D120B940F201
:1016D00069410C4801F072FA012D04D940F26A41C7
:1016E000084801F06BFA25B1074AD3691C43D4615D
:1016F00038BD054AD36923EA0404D46138BD00BF6C
:10170000003601812CB100080010024010B50446DB
:10171000212818D0312816D0392814D0412812D0C9
:10172000612810D07A280ED07B280CD07C280AD0D3
:101730007D2808D07E2806D07F2804D040F234517E
:101740000D4801F03BFA6309012B02D10B4B1B68DA
:1017500006E0022B02D1094B1B6A01E0074B5B6AD2
:1017600004F01F0423FA04F414F0010F01D0012047
:1017700010BD002010BD00BF2CB1000800100240B9
:10178000024A536A43F0807353627047001002406C
:10179000064B00221A605A609A60DA605A629A62B6
:1017A000DA6203499963DA63704700BF0080014041
:1017B000FF07C00010B50446036833B1B3F5005FFE
:1017C00003D0BA211E4801F0F9F9636833B1B3F5CB
:1017D000806F03D0BB211A4801F0F0F9A36833B140
:1017E000B3F5007F03D0BC21154801F0E7F9E368A9
:1017F0004BB1B3F5006F06D0B3F5805F03D0BD21C8
:101800000F4801F0DBF9236933B1B3F5804F03D002
:10181000BE210B4801F0D2F90A48436823F4FD4188
:1018200021F07F01227DA3681A4363681A43E368AD
:101830001A4323681343226913430B43436010BDCB
:101840005CB100080080014010B50446012803D9AE
:10185000EE21034801F0B2F9024B1C6010BD00BF3D
:101860005CB10008A000304210B5044628B103283E
:1018700003D0FE21054801F0A1F9054B1A6822F0BA
:1018800003021A6018682043186010BD5CB100089C
:1018900000800140024B186800F00300704700BF51
:1018A0000080014038B504460D4610F07F4F00D14E
:1018B00020B94FF49B710B4801F080F9012D04D938
:1018C00040F23711074801F079F925B1064AD36B88
:1018D0001C43D46338BD044AD36B23EA0404D463A5
:1018E00038BD00BF5CB100080080014010B504465F
:1018F000012804D94FF4A771024801F05FF9024BA7
:101900001C6010BD5CB100088C05304210B5044667
:1019100043683F2B04D940F25F111B4801F04EF998
:10192000A36843B1402B06D0C02B04D04FF4B07154
:10193000154801F043F9E36853B1B3F5807F07D050
:10194000B3F5007F04D040F261110F4801F036F981
:101950002369B3F5806F05D023B14FF4B1710A4804
:1019600001F02CF9236809488360C36823F4FF6100
:1019700021F007016268A3681A43E36813432269F0
:1019800013430B43C36010BD5CB1000800800140ED
:10199000014B1869C0B270470080014010B582B099
:1019A00000230193044650B1042808D0082806D02B
:1019B0000C2804D040F2A111044801F0FFF8044BB8
:1019C00023440193019B186802B010BD5CB100086C
:1019D0001480014010B504464368B3F1007F04D37E
:1019E0004FF4DA71284801F0E9F8A36803B3102B2B
:1019F0001ED0202B1CD0302B1AD0402B18D0502BAF
:101A000016D0602B14D0702B12D0802B10D0902BBE
:101A10000ED0A02B0CD0B02B0AD0C02B08D0D02BCE
:101A200006D0E02B04D040F2B511174801F0C6F8FB
:101A3000E36833B1022B04D04FF4DB71124801F09C
:101A4000BDF82369042B05D023B140F2B7110E482D
:101A500001F0B4F86369012B04D94FF4DC710A4832
:101A600001F0ACF8236809494B6263688B62CB6A6A
:101A700023F0F700A268E3681A43236913436269FD
:101A800013430343CB6210BD5CB1000800800140EA
:101A9000014BD3F88000704700800140014BC3F830
:101AA000800070470080014010B50446431E012BA2
:101AB00040D904283ED008283CD010283AD020280D
:101AC00038D0402836D0802834D0B0F5807F31D04F
:101AD000B0F5007F2ED0B0F5806F2BD0B0F5006F41
:101AE00028D0B0F5805F25D0B0F5005F22D0B0F5EA
:101AF000804F1FD0B0F5004F1CD0B0F5803F19D0FB
:101B0000B0F5003F16D0B0F5802F13D0B0F5002F00
:101B100010D0B0F5801F0DD0B0F5001F0AD0B0F581
:101B2000800F07D0B0F5000F04D040F29F21054888
:101B300001F044F8044B5B6B1C4201D0012010BD46
:101B4000002010BD5CB100080080014010B50446C3
:101B5000054B034003B920B940F2C321034801F00B
:101B60002DF8034B9C6310BD00F83FFF5CB10008EB
:101B70000080014038B504460D46524B984242D091
:101B8000B0F1804F3FD0A3F5943398423BD003F59A
:101B90008063984237D003F58063984233D003F5D1
:101BA000806398422FD003F5806398422BD003F5D1
:101BB0009033984227D003F5C053984223D003F5C1
:101BC000806398421FD003F5806398421BD0A3F531
:101BD0009E33984217D003F58063984213D003F5E3
:101BE000806398420FD003F5903398420BD003F5F1
:101BF0008063984207D003F58063984203D0E721C1
:101C0000314800F0DBFF6B885BB1102B09D0202B33
:101C100007D0402B05D0602B03D0E8212A4800F0E4
:101C2000CDFFEB884BB1B3F5807F06D0B3F5007FD5
:101C300003D0E921244800F0C1FF23889BB2214A48
:101C4000944212D002F5006294420ED0B4F1804F5B
:101C50000BD0A2F59832944207D002F580629442EC
:101C600003D002F58062944203D123F070036A88A6
:101C70001343164A944208D002F58062944204D07D
:101C800023F440739BB2EA8813432380AB88A38577
:101C90002B8823850B4B9C420FD003F500639C429D
:101CA0000BD003F540639C4207D003F580639C4250
:101CB00003D003F580639C4201D12B7A2386012354
:101CC000A38238BD002C014090B1000800100040F4
:101CD0002DE9F04104460D46634B98423BD0B0F1EC
:101CE000804F38D0A3F59433984234D003F5806305
:101CF000984230D003F5806398422CD003F594339A
:101D0000984228D003F5C053984224D003F580634D
:101D1000984220D003F5806398421CD0A3F59E33EF
:101D2000984218D003F58063984214D003F580637D
:101D3000984210D003F5903398420CD003F580639D
:101D4000984208D003F58063984204D04FF48E7116
:101D5000464800F033FF2B8873B1102B0CD0202B9A
:101D60000AD0302B08D0602B06D0702B04D040F264
:101D70001D113E4800F022FF6B88012B04D94FF45F
:101D80008F713A4800F01AFF2B8933B1022B04D02F
:101D900040F21F11354800F011FF238C9BB223F055
:101DA00001039BB22384238C9BB2A788BFB2228BF2
:101DB00092B222F07302B5F8008042EA080823F0DC
:101DC00002032E8933436E881E43274B9C420FD05B
:101DD00003F500639C420BD003F540639C4207D09F
:101DE00003F580639C4203D003F580639C4233D1AA
:101DF000AB8833B1042B04D04FF49E711B4800F024
:101E0000DDFE6B8933B1082B04D040F23D11174839
:101E100000F0D4FEEB89B3F5007F05D023B14FF479
:101E20009F71124800F0CAFEAB89B3F5807F05D0E0
:101E300023B140F23F110D4800F0C0FE26F0080625
:101E40006B891E4326F00406AB881E4327F44077B7
:101E5000AB891F43EB891F43A780A4F81880EB8848
:101E6000A3862684BDE8F081002C014090B10008D3
:101E70002DE9F04104460E465B4B984223D0B0F169
:101E8000804F20D0A3F5943398421CD003F5806393
:101E9000984218D003F58063984214D003F5943328
:101EA000984210D003F5C05398420CD0A3F59A3352
:101EB000984208D003F59433984204D040F26F1151
:101EC0004A4800F07BFE338873B1102B0CD0202BD6
:101ED0000AD0302B08D0602B06D0702B04D04FF4E2
:101EE000B871424800F06AFE7388012B04D940F2B1
:101EF00071113E4800F062FE338933B1022B04D0E9
:101F00004FF4B971394800F059FE238C9BB223F08D
:101F100010039BB22384258CADB2B4F804801FFA61
:101F200088F8278BBFB227F4E64733881B029BB2A1
:101F30001F4325F0200533891B019BB22B43758875
:101F40002D01ADB21D43284B9C4203D003F5006325
:101F50009C4240D1B38833B1042B04D040F28F119E
:101F6000224800F02BFE738933B1082B04D04FF4C4
:101F7000C8711E4800F022FEF389B3F5007F05D03A
:101F800023B140F29111194800F018FEB389B3F55E
:101F9000807F05D023B14FF4C971144800F00EFEC4
:101FA00025F0800573891B019BB21D4325F040037A
:101FB000B5882D01ADB21D4328F44068B3899B005C
:101FC0009BB248EA0303B6F80E804FEA88081FFA6E
:101FD00088F843EA0808A4F804802783F388238755
:101FE0002584BDE8F08100BF002C014090B10008BD
:101FF0002DE9F04104460E46524B984217D0B0F1FD
:10200000804F14D0A3F59433984210D003F5806329
:1020100098420CD003F58063984208D003F59433BE
:10202000984204D040F2C111474800F0C7FD338800
:1020300073B1102B0CD0202B0AD0302B08D0602B82
:1020400006D0702B04D04FF4E1713F4800F0B6FD8C
:102050007388012B04D940F2C3113B4800F0AEFD58
:10206000338933B1022B04D04FF4E271364800F0CB
:10207000A5FD238C9BB223F480739BB22384258C13
:10208000ADB2A788BFB2B4F81C801FFA88F828F058
:102090007303B6F8008043EA080825F40075338915
:1020A0001B029BB22B4375882D02ADB21D43254BFD
:1020B0009C4203D003F500639C423BD1B38833B10B
:1020C000042B04D04FF4F0711F4800F077FD7389A2
:1020D00033B1082B04D040F2E1111B4800F06EFD33
:1020E000F389B3F5007F05D023B14FF4F1711648A1
:1020F00000F064FDB389B3F5807F05D023B140F2D1
:10210000E311114800F05AFD25F4006573891B02A4
:102110009BB21D4325F48063B5882D02ADB21D43EB
:1021200027F44057B3891B019BB23B43F7893F011A
:10213000BFB21F43A780A4F81C80F388A38725841F
:10214000BDE8F081002C014090B10008F8B50446CC
:102150000D46364B984214D003F50063984210D0D8
:1021600003F5406398420CD003F58063984208D091
:1021700003F58063984204D040F2CB212C4800F054
:102180001DFD2B88B3F5006F05D023B14FF43371DB
:10219000274800F013FD6B88B3F5806F05D023B19D
:1021A00040F2CD21224800F009FDAB886BB1B3F5B8
:1021B000807F0AD0B3F5007F07D0B3F5407F04D00D
:1021C00040F2CE211A4800F0F9FC2B89B3F5805F6C
:1021D00005D023B140F2CF21154800F0EFFC6B8908
:1021E0003BB1B3F5005F04D04FF43471104800F0F8
:1021F000E5FCAB89B3F5804F05D023B140F2D12186
:102200000B4800F0DBFC29886888AA88EF882B89B6
:102210006E89AD890143114347EA01021A4346EA38
:1022200002032B43A4F84430F8BD00BF002C01404A
:1022300090B100084FF6FF73838000230380C380B2
:1022400043800372704700BF002303804380838074
:10225000C380038143818381C3817047002303804E
:1022600043808380C380038143818381704700BFA3
:1022700038B504460D462E4B984243D0B0F1804FFE
:1022800040D0A3F5943398423CD003F58063984244
:1022900038D003F58063984234D003F580639842C8
:1022A00030D003F5806398422CD003F590339842E8
:1022B00028D003F5C053984224D003F58063984298
:1022C00020D003F5806398421CD0A3F59E3398423A
:1022D00018D003F58063984214D003F580639842C8
:1022E00010D003F5903398420CD003F580639842E8
:1022F00008D003F58063984204D040F229310D489C
:1023000000F05CFC012D04D940F22A31094800F0AC
:1023100055FC2DB123889BB243F00103238038BDC7
:1023200023889BB223F001039BB2238038BD00BFFA
:10233000002C014090B1000838B504460D46184BFA
:10234000984214D003F50063984210D003F540631F
:1023500098420CD003F58063984208D003F580635F
:10236000984204D040F242310E4800F027FC012D83
:1023700004D940F243310B4800F020FC4DB1B4F8D1
:1023800044306FEA43436FEA53439BB2A4F84430AE
:1023900038BDB4F84430C3F30E03A4F8443038BD5C
:1023A000002C014090B1000870B504460E46154659
:1023B000284B984243D0B0F1804F40D0A3F59433DE
:1023C00098423CD003F58063984238D003F580638F
:1023D000984234D003F58063984230D003F580638F
:1023E00098422CD003F59033984228D003F5C0537F
:1023F000984224D003F58063984220D003F580638F
:1024000098421CD0A3F59E33984218D003F5806300
:10241000984214D003F58063984210D003F59033AE
:1024200098420CD003F58063984208D003F580638E
:10243000984204D040F29B41074800F0BFFB012DB9
:1024400004D940F29C41044800F0B8FB2685A582DF
:1024500070BD00BF002C014090B1000838B50446A3
:102460000D46274B98423BD0B0F1804F38D0A3F5B2
:102470009433984234D003F58063984230D003F50A
:10248000806398422CD003F59433984228D003F50A
:10249000C053984224D003F58063984220D003F5BE
:1024A000806398421CD0A3F59E33984218D003F560
:1024B0008063984214D003F58063984210D003F5EE
:1024C000903398420CD003F58063984208D003F50E
:1024D0008063984204D040F2E9510A4800F06EFB54
:1024E000082D05D025B140F2EA51064800F066FB00
:1024F000218B89B221F008012943218338BD00BF17
:10250000002C014090B1000838B505460C461C4B24
:10251000984223D0B0F1804F20D0A3F59433984255
:102520001CD003F58063984218D003F5806398426D
:1025300014D003F59433984210D003F5C053984259
:102540000CD0A3F59A33984208D003F594339842FF
:1025500004D040F202610B4800F030FB082C05D09B
:1025600024B140F20361074800F028FB2B8B9BB29B
:1025700023F400632402A4B21C432C8338BD00BFA3
:10258000002C014090B1000838B504460D46154BAB
:10259000984217D0B0F1804F14D0A3F594339842ED
:1025A00010D003F5806398420CD003F58063984205
:1025B00008D003F59433984204D040F21A610A48D7
:1025C00000F0FCFA082D05D025B140F21B61064849
:1025D00000F0F4FAA18B89B221F008012943A1830C
:1025E00038BD00BF002C014090B1000838B504464A
:1025F0000D46274B98422BD0B0F1804F28D0A3F541
:102600009433984224D003F58063984220D003F598
:10261000806398421CD003F58063984218D003F57C
:102620008063984214D003F59033984210D003F59C
:10263000C05398420CD0A3F59A33984208D003F5C2
:102640009433984204D040F6A801124800F0B6FA3C
:1026500095B1102D10D0202D0ED0302D0CD0402D46
:102660000AD0502D08D0602D06D0702D04D040F631
:10267000A901084800F0A2FAA3889BB223F07003D6
:102680009BB2A380A18889B22943A18038BD00BF35
:10269000002C014090B1000838B504460D46244B8B
:1026A000984243D0B0F1804F40D0A3F59433984284
:1026B0003CD003F58063984238D003F5806398429C
:1026C00034D003F58063984230D003F5806398429C
:1026D0002CD003F59033984228D003F5C05398428C
:1026E00024D003F58063984220D003F5806398429C
:1026F0001CD0A3F59E33984218D003F5806398420E
:1027000014D003F58063984210D003F590339842BB
:102710000CD003F58063984208D003F5806398429B
:1027200004D040F6F401034800F048FAA58538BD0E
:10273000002C014090B1000838B504460D46204BEE
:1027400098423BD0B0F1804F38D0A3F594339842F3
:1027500034D003F58063984230D003F5806398420B
:102760002CD003F59433984228D003F5C0539842F7
:1027700024D003F58063984220D003F5806398420B
:102780001CD0A3F59E33984218D003F5806398427D
:1027900014D003F58063984210D003F5903398422B
:1027A0000CD003F58063984208D003F5806398420B
:1027B00004D040F60211034800F000FAA58638BDA7
:1027C000002C014090B1000838B504460D46144B6A
:1027D000984223D0B0F1804F20D0A3F59433984293
:1027E0001CD003F58063984218D003F580639842AB
:1027F00014D003F59433984210D003F5C053984297
:102800000CD0A3F59A33984208D003F5943398423C
:1028100004D04FF41161034800F0D0F9258738BD8A
:10282000002C014090B1000838B504460D460E4B0F
:10283000984217D0B0F1804F14D0A3F5943398424A
:1028400010D003F5806398420CD003F58063984262
:1028500008D003F59433984204D040F61E11034883
:1028600000F0ACF9A58738BD002C014090B10008FC
:1028700010B504460D4B984214D0A3F5744398420A
:1028800010D003F5806398420CD003F58063984222
:1028900008D003F58063984204D04FF41C710448BB
:1028A00000F08CF9A088C0F3080010BD003801408A
:1028B000C0B1000838B505460C463C4B984214D0D0
:1028C000A3F57443984210D003F5806398420CD06E
:1028D00003F58063984208D003F58063984204D0E2
:1028E00040F2D931324800F069F9282C25D040F265
:1028F00027739C4221D040F226639C421DD040F2B7
:1029000025539C4219D040F224439C4215D040F6F6
:1029100046039C4211D040F66A139C420DD0B4F598
:10292000587F0AD0B4F5187F07D0B4F5B07F04D033
:1029300040F2DA311E4800F041F940F66A139C4239
:102940000FD11A4B9D420CD0A3F574439D4208D081
:1029500003F580639D4204D040F2DE31144800F05C
:102960002DF9C4F3421204F01F0101238B40012A08
:1029700003D1AA8992B2134008E0022A03D12A8A1D
:1029800092B2134002E0AA8A92B21340240A0122B2
:1029900002FA04F42A8892B2144013B11CB9002040
:1029A00038BD002038BD012038BD00BF00380140CF
:1029B000C0B1000808B5024800F022F900F002F8A2
:1029C000F4B1000808B5034800F01AF9012000F03E
:1029D00025F800BF08B2000808B50D4B1B6813B9F5
:1029E0000C4A0B4B1A600A4B1A68C31C23F00303F2
:1029F000134409498B4206D906F090FA0C23036070
:102A00004FF0FF3008BD02490B60104608BD00BF03
:102A1000EC000020AC0A002000BC002000B508B982
:102A2000044D00E0044D182420462946ABBE044660
:102A3000FEE700BF26000200230002002DE9F0415E
:102A400084B0234F019703260396002302930124A9
:102A500001AD20462946ABBE80461E4BC3F8008020
:102A6000019703960423029320462946ABBE804675
:102A7000194BC3F800800197039608230293204660
:102A80002946ABBE0446154B1C60B4F1FF3F03D191
:102A9000114B1A68114B1A60002305E04FF0FF310B
:102AA0000F4A42F833100133132BF7DD0C4B094A60
:102AB00012681A6000225A60074909689960DA6052
:102AC0000649096819615A6104B0BDE8F08100BF88
:102AD0001CB200086C010020F000002070010020F2
:102AE00074010020F0B583B006460D46304B0093CC
:102AF0004F2301936F46152420463946ABBE04464A
:102B0000002C42D12A4B83F84F40009A2746214699
:102B100036E0E1B927480068184490F90100002820
:102B200003DB092B03D1012002E0012000E000209B
:102B300028BB082C2ADC222B01D0272B01D1013203
:102B40001F461D4B43F824200134012117E02FB10B
:102B50009F4214D1002111700F4610E01548006803
:102B6000184490F90100002803DB092B03D101234D
:102B700002E0012300E000230BB1002111700132BB
:102B800092F90030002BC4D100E000242CB9084B8E
:102B900000221A70084A13600134074B002243F8E0
:102BA000242034602B60FFF749FF03B0F0BD00BF65
:102BB0001C01002040000020F400002008B50A4657
:102BC0000146024800F004F8FFF7FCFE68B2000876
:102BD0000FB400B583B004AB53F8042B01938021EC
:102BE000064806F097FF002803DD0146034800F081
:102BF00049F803B05DF804EB04B0704714020020FC
:102C000010B5044606F03EFF0146204600F03AF8B3
:102C10000121024800F036F810BD00BF58B300088B
:102C20002DE9F04385B004460F46435613BB0425F7
:102C300028462146ABBE04461FE03546102E28BF6D
:102C40001025002306E014F9011B04AA1A4402F817
:102C5000101C0133AB42F6D304AA1344002203F83C
:102C6000102CE9464FF0040840464946ABBE80466A
:102C7000761B00E00E46002EDFD1384605B0BDE8D9
:102C8000F08300BF08B5FFF7CBFF08BD08B500F023
:102C90006BF9024B024A9A6008BD00BF00ED00E0EC
:102CA0000000000808B500F087F908BDF8B5044633
:102CB0000D4617461E462648FFF78AFF216825481D
:102CC000FFF786FF61682448FFF782FFA168234869
:102CD000FFF77EFFE1682248FFF77AFF216921486C
:102CE000FFF776FF61692048FFF772FFA1691F486F
:102CF000FFF76EFFE1691E48FFF76AFF1D48FFF707
:102D000067FF29461C48FFF763FF1C4CE16A1C481B
:102D1000FFF75EFF216B1B48FFF75AFFE16B1A4874
:102D2000FFF756FF15F0800F03D039461748FFF71D
:102D30004FFF15F4004F03D031461548FFF748FF09
:102D40001448FFF745FF06991348FFF741FFF8BD08
:102D5000C0B20008D0B20008E0B20008F0B200082B
:102D600000B3000810B3000820B3000830B3000817
:102D700040B3000850B300085CB3000800ED00E069
:102D80006CB300087CB300088CB300089CB3000847
:102D9000ACB30008BCB30008C4B3000838B58369FD
:102DA0001B888B426FD1044603684568013B302B7A
:102DB0006BD8DFE803F0421D63635A2C2F291919E1
:102DC0006A19191919193219206A19236A356A6A98
:102DD0006A6A6A6A6A6A6A6A6A6A6A6A6A6A6A6A53
:102DE0006A6A6A6A6A1919004FF0FF33036045E0A6
:102DF0000023036042E0002303603FE000232B60D8
:102E00006B60AB60EB6039E00023036036E0AB68D9
:102E1000036033E00023036030E0002303602DE013
:102E2000BFF34F8F1A49CA6802F4E062194B13438B
:102E3000CB60BFF34F8F00BFFDE71749286806F04E
:102E400017FE70B96B6813B90123236016E0042BD9
:102E500002D10223236011E0082B02D10323236057
:102E60000CE04FF0FF33236008E02B68023B012B9E
:102E700002D80023036001E0AB680360A36902335A
:102E8000A361012038BD002038BD002038BD00BF3F
:102E900000ED00E00400FA051CB2000882B0002337
:102EA000019300932C4A136843F4803313602A4B38
:102EB0001B6803F400330093019B01330193009BD3
:102EC0001BB9019BB3F5A06FF1D1234B1B6813F421
:102ED000003F02D00123009301E000230093009BF8
:102EE000012B36D11D4B1A6842F010021A601A6885
:102EF00022F003021A601A6842F002021A60A3F577
:102F000080535A685A605A685A605A6842F480621C
:102F10005A605A6822F47C125A605A6842F4E812E5
:102F20005A601A6842F080721A600B4B1B6813F0EB
:102F3000007FFAD0084B5A6822F003025A605A68A0
:102F400042F002025A60044B5B6803F00C03082B4A
:102F5000F9D102B0704700BF0010024000200240CB
:102F600008B5FFF79BFF08BD08B5104B1A6842F083
:102F700001021A6059680E4A0A405A601A6822F023
:102F8000847222F480321A601A6822F480221A6055
:102F90005A6822F4FE025A604FF41F029A60FFF74B
:102FA000DFFF4FF00062034B9A6008BD0010024043
:102FB0000000FFF800ED00E01F4B5B6803F00C031E
:102FC000042B06D0082B08D03BBB1C4A1C4B1A60B4
:102FD00026E01A4A1A4B1A6022E0174A53685268D0
:102FE000C3F38343023312F4803F05D1154A02FB39
:102FF00003F3134A136013E00F4A526812F4003FC0
:1030000005D0104A02FB03F30D4A136008E00B4A97
:1030100002FB03F30A4A136002E0084A084B1A60F5
:10302000054B5B68C3F30313074AD35CDAB2044968
:103030000B68D3400B6070470010024000127A000A
:103040002800002000093D00180000200346002051
:10305000012B03D05B080130C0B2F9E7704700BF15
:1030600010B54FF480342CB18020FEF71DFD18B947
:10307000012302E0002300E000230BB1013CF2E752
:103080002CB140F2FF50FEF761FD2A2010BD032055
:1030900010BD00BF08B50F4B5A6B4FF4803312F0D0
:1030A000450F04D11BB1013B0A4A526BF7E713B13C
:1030B00012F0040F04D00420FEF748FD032008BDE1
:1030C00012F0400F04D04020FEF740FD2A2008BD3A
:1030D0002A2008BD0080014008B50B4B5B6B13F044
:1030E000450F02D1084B5B6BF9E713F0040F04D0D6
:1030F0000420FEF72BFD032008BD40F2FF50FEF731
:1031000025FD2A2008BD00BF0080014008B50F4BF7
:103110005B6B13F0450F02D10C4B5B6BF9E713F0BF
:10312000040F04D00420FEF711FD032008BD13F0A6
:10313000010F04D00120FEF709FD012008BD40F277
:10314000FF50FEF703FD2A2008BD00BF00800140AC
:1031500010B50446444B5B6B13F0450F02D1424B54
:103160005B6BF9E713F0040F04D00420FEF7EEFCCC
:10317000032010BD13F0010F04D00120FEF7E6FC80
:10318000012010BDFEF704FCA04243D140F2FF50E5
:10319000FEF7DCFC0020FEF701FC344B0340DBB300
:1031A00000283BDB10F0804F3AD110F0005F39D19E
:1031B00010F0805F38D110F0006F37D110F0806FC1
:1031C00036D110F0807F35D110F4000F34D110F4D7
:1031D000800F33D110F4001F32D110F4801F31D191
:1031E00010F4002F30D110F4802F2FD110F4003FB5
:1031F0002ED110F4803F2DD110F4004F2CD110F4BB
:10320000804F2BD110F4005F2AD110F0080F29D085
:103210001A2010BD102010BD2A2010BD1C2010BD8A
:10322000092010BD0A2010BD0B2010BD0C2010BDC0
:103230000D2010BD0E2010BD0F2010BD102010BDA0
:10324000112010BD122010BD132010BD142010BD80
:10325000152010BD162010BD172010BD182010BD60
:10326000192010BD2A2010BD0080014008E0FFFD9C
:1032700038B504460D461E4B5B6B13F0450F02D16B
:103280001B4B5B6BF9E713F0040F04D00420FEF72F
:103290005DFC032038BD13F0010F04D00120FEF7C0
:1032A00055FC012038BDFEF773FBA04218D140F257
:1032B000FF50FEF74BFC0020FEF770FB10F4604F50
:1032C00003D1000C28802A2038BD10F4005F09D1FA
:1032D00010F4804F08D110F4004F07D00F2038BDF4
:1032E000102038BD132038BD102038BD2A2038BD2D
:1032F0000080014010B582B0044600230193009382
:103300005D4A126812045D4802600D22426040224C
:103310008260C3604FF480630361FEF7F7FA584B95
:103320005B6B0093009B13F0450F03D1544B5B6B19
:103330000093F7E7009B13F0040F04D00420FEF77E
:1033400005FC032095E0009B13F0010F04D0012041
:10335000FEF7FCFB01208CE0FEF71AFB0090009BBF
:103360000D2B5DD140F2FF50FEF7F0FB0020FEF781
:1033700015FB0190019BC3F343232370019A414B3A
:103380001340002B4ED0019B002B4DDB019B13F013
:10339000804F4BD1019B13F0005F49D1019B13F08B
:1033A000805F47D1019B13F0006F45D1019B13F063
:1033B000806F43D1019B13F0807F41D1019B13F4B7
:1033C000000F3FD1019B13F4800F3DD1019B13F4FB
:1033D000001F3BD1019B13F4801F39D1019B13F4D3
:1033E000002F37D1019B13F4802F35D1019B13F4AB
:1033F000003F33D1019B13F4803F31D1019B13F483
:10340000004F2FD1019B13F4804F2DD1019B13F45A
:10341000005F2BD1019B13F0080F29D01A2028E060
:10342000102026E02A2024E01C2022E0092020E0B1
:103430000A201EE00B201CE00C201AE00D2018E0F2
:103440000E2016E00F2014E0102012E0112010E0F2
:1034500012200EE013200CE014200AE0152008E0F2
:10346000162006E0172004E0182002E0192000E0F2
:103470002A2002B010BD00BFEC020020F0020020A4
:103480000080014008E0FFFD70B582B00D460023CA
:1034900000930193514808220260102444604022A6
:1034A0008260C3604FF480630361FEF72FFA204609
:1034B000FFF74EFE2A2840F08F80494B1B68A3403F
:1034C0004648036037244460402383600023C36080
:1034D0004FF480630361FEF719FA2046FFF738FEC8
:1034E0002A2879D13F48404B0360082343603023AA
:1034F00083600223C3600024046101234361FEF75B
:1035000069FA364804603326466040238360C4600D
:103510004FF480630361FEF7F9F93046FFF718FEB8
:1035200004462A2858D10026304B5A6B40F22A63B1
:103530001A420BD14FF40010FEF7B6FA0028F3D070
:10354000FEF7A6FA4DF826000136EDE70820FEF753
:10355000ABFA20B10820FEF7F9FA04203CE0022083
:10356000FEF7A2FA20B10220FEF7F0FA022033E0C3
:103570002020FEF799FA20B12020FEF7E7FA062076
:103580002AE04FF40070FEF78FFA28B14FF4007074
:10359000FEF7DCFA07201FE040F2FF50FEF7D6FAF4
:1035A00000990B0203F47F0343EA01630A0A02F461
:1035B0007F42134343EA11636B6001990B0203F4EA
:1035C0007F0343EA01630A0A02F47F42134343EA9A
:1035D00011632B602046FFE702B070BDF0020020AF
:1035E000EC02002094020020FFFF0F000080014049
:1035F00010B582B00446002000900190FEF7CEF98D
:1036000010F0007F5DD16946314B1888FFF73CFF11
:103610002A285BD1012C2AD1019B13F4802F52D090
:103620002B4B1B681B042B4803603724446040234A
:1036300083600023C3604FF480630361FEF766F983
:103640002046FFF785FD2A2840D122480223036047
:1036500006244460402383600023C3604FF48063EA
:103660000361FEF753F92046FFF772FD2EE0019B40
:1036700013F4803F29D0164B1B681B0415480360C8
:1036800037244460402383600023C3604FF4806389
:103690000361FEF73BF92046FFF75AFD2A2815D1B2
:1036A0000C48002303600624446040228260C3600B
:1036B0004FF480630361FEF729F92046FFF748FDC8
:1036C00004E00E2002E0252000E0252002B010BD1D
:1036D000EC020020F002002000B583B00121B020F0
:1036E000FDF7C8FF4FF4F853ADF8043003238DF80D
:1036F000063018238DF8073001A91148FDF74AFB61
:103700000423ADF804300DEB03010E48FDF742FB36
:103710004FF40063ADF8043048238DF8073001A959
:103720000948FDF737FB01214FF48060FDF77CFF6E
:1037300001210220FDF778FF03B05DF804FB00BF14
:103740000010014000140140001C014070B58CB015
:1037500006460D461348FDF725FA134C0021204676
:10376000FDF7D6F8114B0193029610230393AD0891
:10377000049500230593802206924FF4007207926D
:103780004FF40062089209934FF400520A920B938F
:1037900001A92046FDF714F801212046FDF7B8F8ED
:1037A0000CB070BD00F00010440402408080014065
:1037B00070B58CB006460D461348FDF7F3F9134C6F
:1037C00000212046FDF7A4F8114B01930296002337
:1037D0000393AD0804950593802206924FF400727E
:1037E00007924FF40062089209934FF400520A9234
:1037F0000B9301A92046FCF7E3FF01212046FDF7CA
:1038000087F80CB070BD00BF00F000104404024007
:103810008080014008B50348FDF70CF90028FAD074
:1038200008BD00BF0020001070B55248B2230375D8
:103830000024046044608460C4600461FDF7BAFF42
:103840000320FEF711F80120FDF7FEFF4A4804604F
:1038500044608460C4604FF480630361FEF756F8EF
:10386000FFF7FEFB2A2840F0838043484FF4D573CE
:1038700003600823436040238360C4604FF4806387
:103880000361FEF743F8FFF705FC2A2805D1012262
:103890003A4B1A604FF080460FE03748002606602A
:1038A0003724446040238360C6604FF48063036123
:1038B000FEF72CF82046FFF74BFC2F48002303604F
:1038C0003724446040228260C3604FF48063036108
:1038D000FEF71CF82046FFF73BFC04462A2842D19D
:1038E00000200546024690BB4FF6FE739D422ED83F
:1038F0002148002303603724446040228260C36073
:103900004FF480630361FEF701F82046FFF720FCC7
:103910002A282DD146F0004343F480131648036053
:1039200029234360402383600023C3604FF48063F6
:103930000361FDF7EBFFFFF7CFFB04462A2813D105
:103940000020FEF72BF80246C00F0135CBE74FF6FB
:10395000FE739D4209D812F0804F08D00222074B17
:103960001A60204670BD70BD70BD1B2070BD204622
:1039700070BD00BFD0020020F0020020B002002085
:1039800010B582B00123ADF80630FDF783FF0028A3
:103990006ED03A4B1B68042B21D0394800230360BA
:1039A00002224260C0228260C3604FF480630361E0
:1039B000FDF7ACFFFFF7AAFB2A285CD10020FDF73A
:1039C000EDFF304C20600420FDF7E8FF6060082028
:1039D000FDF7E4FFA0600C20FDF7E0FFE060274B5F
:1039E0001B68012B03D9062B01D0022B13D12448CD
:1039F000002303600324446040228260C3604FF4CC
:103A000080630361FDF782FF0DF106012046FFF799
:103A10002FFC2A282FD1194B1B68042B2AD0BDF864
:103A20000630194A13601B041548036009234360DC
:103A3000C02383600023C3604FF480630361FDF7FC
:103A400065FFFFF763FB2A2815D10020FDF7A6FFCD
:103A50000E4C20600420FDF7A1FF60600820FDF7F8
:103A60009DFFA0600C20FDF799FFE0602A2002E096
:103A7000252000E02A2002B010BD00BFB0020020C7
:103A8000F0020020B4020020EC0200200403002019
:103A900070B49E4B1C6880F84E409D4B1B68A0F88C
:103AA0004C309C4D2B68190ECAB296090670C1F3B2
:103AB0008301417002F003028270C3F30742C270B7
:103AC000C3F307220271DBB243716A68130E1B0154
:103AD000C380C2F30741C3889BB243EA1113C3807A
:103AE00001F00F010172110ACBB2DD094572C1F379
:103AF00080158572C1F34015C572C1F300150573B9
:103B000000254573012C3CD8890201F44061016114
:103B10000369920002F47F721A4302617D4B9B6835
:103B2000190ECAB2046944EA92140461C1F3C201D5
:103B3000017502F0070242751A0CC2F34211817539
:103B4000C2F38201C175520002F006020276C3F38D
:103B50000723027E42EAD31202760469651C45649B
:103B6000027E0232012101FA02F205FB02F44464F2
:103B7000027AD2B201FA02F2826402FB04F24264D7
:103B80001AE0022C18D1120402F47C120261614B7B
:103B90009B68190E026942EA012202610269C3F3BD
:103BA00007410A430261C3F3072302690132D204C9
:103BB00042644FF400728264C3F3801242765B0069
:103BC00003F07E03837653490B7A827E42EAD31256
:103BD000827603F07F03C376CA68130ED909017792
:103BE000C3F341114177C3F3820181779B0003F056
:103BF0000C03C377110CCBB2C47F44EA9314C4778F
:103C0000C1F3401180F82010002180F8211003F04A
:103C1000010380F82230130AD9B2CC0980F823407E
:103C2000C3F3801480F82440C3F3401480F8254087
:103C3000C3F3001480F82640C3F3810380F82730D3
:103C400001F0030180F82810C2F3460280F8292011
:103C5000012180F82A10304C23681A0E80F82C209D
:103C6000C3F307421202C285C3F30725C28D92B285
:103C70002A43C2851B06036363681D0E026B42EA7A
:103C8000054202631A0C056B120202F47F422A43BA
:103C90000263026BC3F307252A430263DBB280F899
:103CA0003430A3681A0E80F835201A0C120682638D
:103CB0001A0A856B120402F47F022A438263826B24
:103CC0001B0203F47F4313438363E368826B42EA7E
:103CD000136282631A0C90F83C50C2F303142C4315
:103CE00080F83C40120202F47062C287C3F30724DA
:103CF000C28F92B22243C287C3F3460380F840309A
:103D000080F841102A2070BC704700BFB00200202C
:103D1000EC02002004030020B40200201E4B1B68AC
:103D2000032B30D0022B30D8B0F5805F2FD010B5E8
:103D3000B0F5006F14D10120FFF75AFC04462A2881
:103D400027D1164802230375002303604360836074
:103D50004FF40062C2600361FDF72CFD204610BDE8
:103D60000020FFF745FC04462A2813D10B48022304
:103D700003750023036043608360C3600361FDF744
:103D800019FD204610BD272070472A2070472720A4
:103D9000704710BD10BD00BFB0020020D00200204F
:103DA000022803D8024B18602A207047262070474B
:103DB0002C00002010B5094B186007245C604022DD
:103DC0009A600022DA604FF480621A611846FDF7AB
:103DD0009DFD2046FFF7BCF910BD00BFF00200209A
:103DE00010B594B0FFF778FCFDF7D2FCFFF71CFD8F
:103DF0002A282CD1FFF7C4FD04462A2825D11548CE
:103E0000022303750023036043608360C360036182
:103E1000FDF7D0FC2A2C03D16846FFF739FE044693
:103E20002A2C05D1BDF84C000004FFF7C3FF04465F
:103E30002A2C04D14FF40060FFF770FF04462A2CAF
:103E400004D10020FFF7ACFF01E000E0204614B0F1
:103E500010BD00BFD0020020002800F0FA802DE93C
:103E6000F8430E46154607462A22834B1A70002453
:103E7000824B1C60824B1C608248834B0360446011
:103E80008460C46004614461FDF7A4FD2046FDF731
:103E90002DFD2046FDF782FD10F0007F40F0DB8015
:103EA0007A4B1B68022B02D1760A4FF400756B1E09
:103EB0009BB2B3F5006F80F0D1806B1E1D4240F0C5
:103EC000D0802846FFF7C2F88146A84670480560B2
:103ED00010244460402383600023C3604FF4806358
:103EE0000361FDF713FD2046FFF732F92A2840F061
:103EF000C0806448644B036045604FEA09138360E7
:103F00000223C3600024046101234361FDF762FDC5
:103F10005B4B1D605F4B1C605F4B1F605C48066025
:103F20001125456040238360C4604FF480630361C2
:103F3000FDF7ECFC2846FFF70BF904462A2840F071
:103F40009380564B1B68022B51D1554B5A6B40F254
:103F50002A631A4210D14FF40040FDF7A5FD002856
:103F6000F3D00025072D05D8FDF792FD47F8250071
:103F70000135F7E72037E8E70820FDF795FD28B180
:103F80000820FDF7E3FD0420BDE8F8830220FDF7DB
:103F90008BFD28B10220FDF7D9FD0220BDE8F88392
:103FA0002020FDF781FD28B12020FDF7CFFD062060
:103FB000BDE8F8834FF40070FDF776FD30B14FF4A3
:103FC0000070FDF7C3FD0720BDE8F8834FF4001033
:103FD000FDF76AFD20B1FDF75BFD47F8040BF5E73F
:103FE00040F2FF50FDF7B2FD2046BDE8F883012BFB
:103FF0001DD1012148F22A30FDF754FC1F4B1B68EC
:1040000033B91D4B1B78DBB22A2B03D0002302E00F
:10401000002300E00123002BF0D1174B1B78DBB20B
:104020002A2B23D0144B1878C0B2BDE8F88303BB09
:10403000012140F22A30FDF735FC0120FDF756FC46
:1040400041463846FFF7B4FBFFF7E4FB2046BDE8E6
:10405000F883262070470E20BDE8F8832620BDE8AF
:10406000F8832620BDE8F883BDE8F8832046BDE844
:10407000F883BDE8F88300BF30000020C8020020AC
:10408000AC02002094020020FFFF0F00B0020020CD
:10409000F0020020C4020020CC0200202C000020EE
:1040A000008001402DE9F04383B000238DF80730F4
:1040B000002800F06F810D46904606462A22B64B36
:1040C0001A700024B54B1C60B54B1C60B548B64B4C
:1040D000036044608460C46004614461FDF77AFC5D
:1040E0002046FDF703FC2046FDF758FC10F0007F4A
:1040F00040F06A81AD4B1B68022B02D16D0A4FF470
:10410000007808F1FF339BB2B3F5006F80F05E8159
:1041100008F1FF3318EA030F40F05A814046FEF7DA
:1041200095FF07464446A248C0F800804FF01008AB
:10413000C0F80480402383600023C3604FF4806391
:104140000361FDF7E3FB4046FFF702F82A2840F041
:104150004281984B1B6803FA08F3954803604FF0BF
:104160000D08C0F80480402383600023C3604FF42F
:1041700080630361FDF7CAFB4046FEF7E9FF2A288A
:1041800040F029810020FDF709FCDFF81C8210F4C3
:10419000807F20D1B8F1000F1DD008F1FF38854B8A
:1041A0001B681B04824803604FF00D09C0F804909F
:1041B000402383600023C3604FF480630361FDF7F5
:1041C000A5FB4846FEF7C4FF2A2840F004810020E2
:1041D000FDF7E4FBDBE7B8F1000F00F0FB8074486B
:1041E000056018254560402383600023C3604FF4B9
:1041F00080630361FDF78AFB2846FEF7A9FF2A28A2
:1042000040F0E980664B1C6000236B4A13606B4AE8
:1042100016606448644A026044603F018760C3607E
:10422000036101234361FDF7D5FB654B1B68022B3E
:1042300055D10025634B5A6B40F21A631A4227D1BD
:104240004FF48040FDF730FC0028F3D0544B1B683E
:104250005B1B1F2B10D813F0030F01D19C0801E04A
:104260009B085C1C0027A742E4D256F8040BFDF71C
:1042700015FC01370435F6E70024072C05D856F85D
:104280002400FDF70BFC0134F7E720362035D1E799
:104290000820FDF709FC20B10820FDF757FC042099
:1042A00099E00220FDF700FC20B10220FDF74EFC52
:1042B000022090E01020FDF7F7FB20B11020FDF761
:1042C00045FC052087E04FF40070FDF7EDFB00286A
:1042D0004BD04FF40070FDF739FC07207BE0012B39
:1042E0001CD1012144F21A30FDF7DCFA2B4B1B687C
:1042F00033B9294B1B78DBB22A2B03D0002302E011
:10430000002300E00123002BF0D1234B1B78DBB20C
:104310002A2B2AD0204B1878C0B25CE02BBB01219D
:1043200040F21A30FDF7BEFA21463046FFF70EFA8A
:104330000120FDF7DBFAFFF76DFA184B1B6833B964
:10434000154B1B78DBB22A2B03D0002302E000239D
:1043500000E00123002BF0D10F4B1B78DBB22A2B9E
:1043600003D00D4B1878C0B235E040F2FF50FDF796
:10437000EDFB0DF10700FEF7BDFF2A282BD19DF8BC
:104380000730063BDBB2012B25D80DF10700FEF705
:10439000B1FFF2E726201EE030000020C802002016
:1043A000AC02002094020020FFFF0F00B0020020AA
:1043B000F0020020EC020020C4020020E8020020ED
:1043C0002C000020008001400E2004E0262002E0A6
:1043D000262000E0292003B0BDE8F083E8B138B51D
:1043E00005460F4B1B681B040E4803600D244460F8
:1043F000402383600023C3604FF480630361FDF7B3
:1044000085FA2046FEF7A4FE04462A2807D100209C
:10441000FDF7C4FA2860204638BD2620704738BD15
:10442000EC020020F002002000B595B0FFF7D8FCA8
:104430002A2802D16846FFF72BFB15B05DF804FB74
:1044400030B908B5FFF7F0FF2A2803D1002008BDD6
:1044500001207047032008BD50B900B583B001A802
:10446000FFF7BCFF2A2801D1002003E0032001E070
:104470000120704703B05DF804FB00BF98B9F8B5A0
:104480001D4617460E460024AC420ED2E1194FF4E9
:104490000072490206EB4420FFF7DEFC2A2806D111
:1044A0000134E4B2F0E7002070470020F8BD01209D
:1044B000F8BD00BF98B9F8B51D4617460E46002452
:1044C000AC420ED2E1194FF40072490206EB4420CF
:1044D000FFF7E8FD2A2806D10134E4B2F0E7002016
:1044E00070470020F8BD0120F8BD00BF04207047D0
:1044F0004278007840EA0220704700BFC278837893
:1045000043EA0222437843EA0223007840EA032088
:10451000704700BF0170090A417070470170C1F314
:1045200007234370C1F307438370090EC1707047BE
:1045300013462AB10A78027001300131013BF9D1EA
:10454000704700BF01700130013AFBD1704700BFD6
:1045500030B4451C037808781B1A013A04D04C1C6F
:1045600028462146002BF4D0184630BC704700BFC7
:1045700000E0013090F900300BB18B42F9D11846C0
:10458000704700BF02394369023B994204D2438914
:10459000806A01FB030070470020704770B5064633
:1045A0000D4601F11A00FFF7A3FF04463378032BF1
:1045B00005D105F11400FFF79BFF44EA004070BDF0
:1045C00070B506460C46154691B204F11A00FFF785
:1045D000A1FF3378032B04D1290C04F11400FFF759
:1045E00099FF70BD2DE9F84F824689460F6800F1AA
:1045F000200B0B2220215846FFF7A4FF00252B4655
:104600004FF008085E1CFC5C202C4AD92F2C03D0EC
:104610005C2C07D100E00136BB572F2BFBD05C2B65
:10462000F9D03EE02E2C01D0A84509D8B8F10B0FE7
:104630004CD02E2C4DD1334608254FF00B08E1E726
:1046400004F17F02D2B21E2A04D904F12002D2B2B0
:104650001C2A15D80233B95DA1F14002D2B23E2A1C
:1046600003D981F080027C2A36D808F1FF329542C6
:1046700035D26A1C0BF805400BF802100235C1E771
:1046800021461B48FFF774FF60BBA4F16103DBB256
:10469000192B01D8203CE4B20BF805400135334614
:1046A000B0E73E44C9F80060FDB19AF82030E52B30
:1046B00002D105238AF82030202C01D8042300E001
:1046C00000238AF82B300020BDE8F88F0620BDE8D3
:1046D000F88F0620BDE8F88F0620BDE8F88F062089
:1046E000BDE8F88F0620BDE8F88F0620BDE8F88FFA
:1046F00008B4000810B4046824B94FF0FF3321E077
:10470000013200E0224692F90030D9B2202901D9C5
:104710003A2BF5D13A2B0BD1611C94F90030303B88
:10472000092B07D88A4208D153B90132026009E047
:10473000002307E04FF0FF3304E04FF0FF3301E0C8
:104740004FF0FF33184610BC704700BF38B50C4619
:1047500070B1054603685BB11A784AB1D98882887E
:10476000914205D15878FFF777FE10F0010F03D082
:1047700000232360092038BD2B682360002038BD4A
:10478000F8B5C37803B30446C66A00F130070123C5
:10479000324639464078FFF78DFEB8B90023E37002
:1047A000236AF31AA269934212D2A57808E0A3699A
:1047B0001E440123324639466078FFF77BFE013DF7
:1047C000012DF4D80020F8BD0020F8BD0120F8BD6F
:1047D0000020F8BD70B5C36A8B4212D004460D4666
:1047E000FFF7CEFF064668B901232A4604F13001DF
:1047F0006078FFF743FE10B101264FF0FF35E56208
:1048000000E00026304670BD10B504460023C3709A
:104810004FF0FF33C362FFF7DDFF18BB04F22E2019
:10482000FFF766FE4AF6552398421DD194F83030C2
:10483000E92B05D0236B03F0FF130F4A934215D1E8
:1048400004F16600FFF75AFE20F07F400B4B9842C0
:104850000ED004F18200FFF751FE094B984209D1B6
:10486000002010BD042010BD032010BD022010BD8B
:10487000002010BD022010BDEB0090004641540006
:10488000464154332DE9F04784B00E4617460023C5
:104890000B60FFF72FFF051EC0F22C81AA4B53F8C7
:1048A0002540002C00F02881346007F0FE072378B3
:1048B00073B16078FFF7D0FD10F0010F08D1002F21
:1048C00000F01C8110F0040F40F01A81002038E144
:1048D00000232370E8B26070FFF7B2FD10F0010F03
:1048E00040F010811FB110F0040F40F00D81002145
:1048F0002046FFF789FF022815D0002628E004F1A2
:1049000030002B0103F5DF73184403791BB1083025
:10491000FFF7F4FD00E0002004AB03EB850343F850
:10492000100C013500E00025032DE8D9002504AB6B
:1049300003EB850353F8106C26B131462046FFF790
:1049400063FF00E00320012802D90135032DEED9D1
:10495000042800F0DB80012800F2DA8004F13B003B
:10496000FFF7C6FDB0F5007F40F0D48004F14600AB
:10497000FFF7BEFD804620B904F15400FFF7BEFDED
:104980008046C4F8188094F8409084F8029009F1A9
:10499000FF33DBB2012B00F2BF8008FB09F994F86A
:1049A0003D506581002D00F0B9806B1E1D4240F026
:1049B000B78004F14100FFF79BFD8246208110F093
:1049C0000F0F40F0AF8004F14300FFF791FD074661
:1049D00020B904F15000FFF791FD074604F13E00B5
:1049E000FFF786FD0346002800F09E8009EB0002D9
:1049F00002EB1A129742C0F09980BF1AB7FBF5F587
:104A0000002D00F095804FF6F5718D4201D90327F6
:104A100000E0022740F6F5718D4200D801270235EB
:104A20006561E661334423623244A262032F0FD1F1
:104A300004F15A00FFF75CFD00287BD1BAF1000FAA
:104A40007AD104F15C00FFF759FD6062AD000EE021
:104A5000BAF1000F72D04B446362022F01D16D0096
:104A600005E005EB450305F0010505EB530505F2EF
:104A7000FF15B8EB552F63D34FF0FF332361E3608D
:104A800080232371032F2CD104F16000FFF730FD48
:104A9000012826D1711C2046FFF79CFE08BB00238D
:104AA000237104F22E20FFF723FD4AF65523984286
:104AB00017D104F13000FFF721FD244B984210D1AB
:104AC00004F50570FFF71AFD214B984209D104F552
:104AD0000670FFF713FD206104F50770FFF70EFD68
:104AE000E06027701B4A138801339BB21380E38078
:104AF000002026E00B2024E00C2022E0002020E013
:104B00000A201EE003201CE00A201AE0012018E021
:104B10000D2016E00D2014E00D2012E00D2010E015
:104B20000D200EE00D200CE00D200AE00D2008E025
:104B30000D2006E00D2004E00D2002E00D2000E035
:104B40000D2004B0BDE8F0871803002052526141E7
:104B500072724161140300202DE9F047012975D9D3
:104B60004369994274D217460C4606460378022BD5
:104B70003ED0032B4FD0012B6CD101EB5108016AC1
:104B800001EB5821FFF726FE0546002863D106F108
:104B9000300A08F10109C8F3080814F0010407D02D
:104BA0001AF8083003F00F0343EA0713DBB200E002
:104BB000FBB20AF808300123F370316A01EB592186
:104BC0003046FFF707FE0546002844D1C9F308091F
:104BD00014B1C7F3071206E01AF8093023F00F03E7
:104BE000C7F303221A430AF809200123F37032E0C5
:104BF000016A01EB1421FFF7EDFD054658BB06F1F4
:104C00003000630003F4FF73B9B21844FFF782FC6D
:104C10000123F3701FE0016A01EBD411FFF7DAFD05
:104C20000546C0B927F0704706F13003A10001F432
:104C3000FE715C182046FFF761FC00F070413943BB
:104C40002046FFF76BFC0123F37004E0022502E02D
:104C5000022500E002252846BDE8F087F8B5066881
:104C6000012953D97369994252D20C463378022BE9
:104C70002AD0032B38D0012B4CD101EB5105316ADE
:104C800001EB55213046FFF7A5FD002844D16F1CEC
:104C9000C5F30805354495F83050316A01EB5721CA
:104CA0003046FFF797FD002839D1C7F30803334496
:104CB00093F8300045EA002014F0010F01D00009FC
:104CC000F8BDC0F30B00F8BD316A01EB142130468A
:104CD000FFF780FD30BB06F13000610001F4FF7189
:104CE0000844FFF705FCF8BD316A01EBD4113046EA
:104CF000FFF770FDC8B906F13003A10001F4FE70A2
:104D00001844FFF7FBFB20F07040F8BD0120F8BD10
:104D10000120F8BD0120F8BD4FF0FF30F8BD4FF085
:104D2000FF30F8BD4FF0FF30F8BD4FF0FF30F8BD59
:104D30002DE9F0410768B1F5001F3DD206460C464B
:104D400011F01F0F3BD1316185681DB93B78022BF3
:104D500000D97D6A35B93B89B3EB541F32D97B6AE0
:104D6000B3611AE0B7F80A804FEA48280EE02946F6
:104D70003046FFF773FF0546B0F1FF3F25D001280D
:104D800026D97B69984226D2C8EB04044445EED26A
:104D900029463846FFF7F6FBB0617561B369EBB1A0
:104DA00003EB5423B36107F13003C4F30804234435
:104DB000F3610020BDE8F0810220BDE8F08102200F
:104DC000BDE8F0810220BDE8F0810120BDE8F0815E
:104DD0000220BDE8F0810220BDE8F0810220BDE89C
:104DE000F08100BF2DE9F04107460668884629B9E1
:104DF000F5687DB173699D420ED20EE0FFF72EFF7C
:104E0000012846D9B0F1FF3F51D0736998424ED383
:104E1000454602E0012500E001252C460134736976
:104E20009C4202D3012D37D9022421463846FFF790
:104E300015FF38B1012832D0B0F1FF3F31D0AC427C
:104E4000ECD130E04FF0FF3221463046FFF784FED0
:104E5000034640B9B8F1000F05D02246414630461E
:104E6000FFF77AFE034673B9F46033697269023A58
:104E7000934201D2013B3361337943F00103337133
:104E80002046BDE8F081012B10D14FF0FF30BDE886
:104E9000F0810120BDE8F0810020BDE8F081BDE88F
:104EA000F081BDE8F0810020BDE8F0810120BDE87F
:104EB000F08100BFF8B50E46046801292CD90746D9
:104EC000114663699E4229D22AB14FF0FF32204633
:104ED000FFF742FE20BB31463846FFF7BFFE0546CE
:104EE000F8B101281FD0B0F1FF3F1ED0002231469B
:104EF0002046FFF731FED0B92369B3F1FF3F05D05B
:104F000001332361237943F00103237163692E4642
:104F10009D42E0D30020F8BD0220F8BD0220F8BD7C
:104F2000F8BD0020F8BD0220F8BD0120F8BDF8BD95
:104F30002DE9F8430668036903F120058369002B16
:104F40006DD0B5F5001F6DD288460446C5F308073D
:104F5000002F5DD101338361416941B93389B3EBDE
:104F6000551F55D8002383610420BDE8F883738959
:104F7000013B13EA55234BD1FFF770FE8146012810
:104F800053D9B0F1FF3F53D07369984239D3B8F188
:104F9000000F04D10023A3610420BDE8F8836169F8
:104FA0002046FFF71FFF8146002844D0012845D046
:104FB000B0F1FF3F45D03046FFF7E2FB002843D178
:104FC0004FF40072002106F13000FFF7BBFA4946AA
:104FD0003046FFF7D7FAF0624FF000080AE00123ED
:104FE000F3703046FFF7CCFB88BB08F10108F36A89
:104FF0000133F36273899845F1D3F36AC8EB030375
:10500000F362C4F8149049463046FFF7BBFAA0613A
:10501000256130363E44E6610020BDE8F883042077
:10502000BDE8F8830420BDE8F8830220BDE8F883DA
:105030000120BDE8F8830720BDE8F8830220BDE821
:10504000F8830120BDE8F8830120BDE8F883012042
:10505000BDE8F88370B5044606680021FFF768FED6
:10506000E8B9A1693046FFF7B5FB0546C0B9E0696C
:105070000378B3B1C37A03F03F03A371C37A13F08B
:10508000080F05D10B2204F12001FFF761FA50B19E
:1050900000212046FFF74CFF0028E2D070BD70BD14
:1050A00070BD042070BD284670BD00BF30B583B010
:1050B00004460191056801E001330193019B93F9D6
:1050C00000202F2AF8D05C2AF6D00022A2601B789C
:1050D0001F2B08D8802384F82B3011462046FFF779
:1050E00027FE034627E001A92046FFF77BFA034687
:1050F00008BB2046FFF7AEFF94F82B20034628B1EB
:10510000042818D112F0040F12D014E012F0040F8A
:1051100011D1A37913F0100F0CD005F130012369E0
:10512000C3F3080319442846FFF738FAA060DAE70A
:10513000052300E00523184603B030BDF8B504464A
:105140000F4606680021FFF7F3FD0246B8B90025B7
:10515000A1693046FFF73EFB024680B9E3691B7840
:10516000E52B00D01BB90135BD4201D107E0002578
:1051700001212046FFF7DCFE02460028E8D0042A81
:1051800000D107221046F8BD70B50446066801211B
:10519000FFF7D4FF054690B9A1693046FFF71AFB27
:1051A000054660B920220021E069FFF7CBF90B2208
:1051B00004F12001E069FFF7BBF90123F3702846F1
:1051C00070BD00BF70B50446FFF7DAFA0546002847
:1051D00037D12378032B2DD12379012B2AD104F148
:1051E00030064FF4007200213046FFF7ABF94AF663
:1051F000552104F22E20FFF78DF913493046FFF7B1
:105200008DF9124904F50570FFF788F9216904F555
:105210000670FFF783F9E16804F50770FFF77EF980
:10522000E2690132E262012331466078FFF742F918
:1052300000232371002211466078FFF757F900B16F
:105240000125284670BD00BF525261417272416112
:1052500010B584B001900091144604A840F8041DD4
:10526000FFF748FA002816DB0E4B53F820300BB13D
:1052700000221A70019B0BB100221A70019B094A8F
:1052800042F820304BB1012C09D1002201A9684617
:10529000FFF7F8FA04E00B2002E0002000E0002015
:1052A00004B010BD180300202DE9F0438FB0019128
:1052B000002800F0E0800546164602F03F073A4617
:1052C00002A901A8FFF7DEFA0446002840F0CE80CC
:1052D000029B0393019903A8FFF7E8FE044620B957
:1052E0009DF93730002B00DA062416F01C0F53D03E
:1052F00044B1042C03D103A8FFF746FF044647F04E
:1053000008070BE09DF8123013F0110F03D116F0CF
:10531000040F02D102E0072400E00824002C4BD146
:1053200017F0080F48D0574E31460A980E30FFF755
:10533000F5F831460A981630FFF7F0F820220A9B5C
:10534000DA72029EDDF8288041463046FFF726F9E2
:105350008146002241463046FFF732F900210A9883
:105360001C30FFF7DBF80122029BDA70B9F1000F65
:1053700022D0029BDE6A0022494603A8FFF79AFD6D
:105380000446C8B931460298FFF724FA044609F1E9
:10539000FF33029AD3600FE074B99DF8123013F016
:1053A000100F06D116F0020F06D013F0010F02D134
:1053B00002E0042400E007244CB917F0080F01D0E4
:1053C00047F04007029BDB6A2B620A9B6B62002C52
:1053D0004CD1029EDDF8288041463046FFF7DEF8CA
:1053E000A86008F11C00FFF789F8E8602E60F388D8
:1053F000AB802F7400216974E961696105F12808A7
:105400004FF400724046FFF79DF817F0200F2DD0A3
:10541000EE685EB36E61029B5F897F02A9680BE054
:105420002846FFF71BFC0146012800D80224B1F1F1
:10543000FF3F00D10124F61B0CB9BE42F0D8A96190
:10544000A4B9C6F308038BB1029F3846FFF79AF858
:1054500048B100EB5622EA61012341467878FFF714
:105460000DF810B902E0022400E001242CB1002361
:105470002B60204602E0092000E020460FB0BDE886
:10548000F08300BF000021482DE9F04F83B00446AF
:10549000884615461F4600233B6001A9FFF756F9D1
:1054A000002840F0A380607C002840F0A180237C8D
:1054B00013F0010F00F09B80E6686369F61AAE42B4
:1054C000C0F08F802E468CE06369C3F30802002A87
:1054D00070D1019A5289013A12EA532912D10BB9BB
:1054E000A06803E0A1692046FFF7B8FB012802D8B5
:1054F000022060747CE0B0F1FF3F02D101206074B3
:1055000076E0A061DDF804A0A1695046FFF73AF803
:10551000054610B9022060746AE04D445FEA562BDC
:1055200025D009EB0B03BAF80A20934201D9C9EB45
:10553000020B5B462A4641469AF80100FEF79EFFA1
:1055400010B10120607453E094F91030002B0BDA95
:10555000E069401B834507D94FF4007204F128012C
:1055600008EB4020FEF7E4FF4FEA4B2531E0E2690B
:1055700095421ED094F91030002B0EDA012304F16D
:1055800028019AF80100FEF795FF10B10120607420
:105590002EE0237C03F07F03237401232A4604F1C9
:1055A000280101984078FEF769FF10B1012060746E
:1055B0001EE0E5616369C3F30803C3F50075AE42FD
:1055C00000D2354604F128012A4619444046FEF728
:1055D000AFFFA84463692B4463613B682B443B6085
:1055E000761B002E7FF470AF002001E000E0072062
:1055F00003B0BDE8F08F00BF30B583B0044601A909
:10560000FFF7A4F800283CD1227C12F0400F39D0DB
:1056100012F0800F0CD00123E26904F128010198F7
:105620004078FEF747FF70BB237C03F07F032374B1
:10563000216A0198FFF7CEF838BB656AEB7A43F030
:105640002003EB72A26829462068FEF7B9FFE168E3
:1056500005F11C00FEF762FF0D4905F11600FEF78B
:105660005DFF002105F11200FEF754FF0122019BAE
:10567000DA700198FFF7A6FD237C23F04003237422
:1056800003E002E001E00120FFE703B030BD00BF0E
:105690000000214810B582B00446FFF7ADFF034675
:1056A00038B901A92046FFF751F8034608B900228E
:1056B0002260184602B010BDF0B583B004460E4615
:1056C00001A9FFF743F8002840F0A480657C002D75
:1056D00040F0A180E368B34204D2227C12F0020FB2
:1056E00000D11E46636900226261002E5DD0019ADE
:1056F00057897F026BB1721EB2FBF7F2013BB3FB1D
:10570000F7F18A4205D37A4213406361F61AA16920
:1057100012E0A16879B92046FFF764FB0146012831
:1057200002D10220607479E0B0F1FF3F02D1012084
:10573000607473E0A060A16119BB002638E0237C8F
:1057400013F0020F05D02046FFF74CFB014620B9AD
:105750001AE02046FFF782FA0146B1F1FF3F02D17D
:10576000012060745AE0012903D9019B5B699942C9
:1057700002D30220607451E0A16163693B4463611C
:10578000F61BBE42DBD800E03E46636933446361EA
:10579000C6F308035BB10198FEF7F4FE10B90220CE
:1057A00060743BE000EB562602E0002600E0002695
:1057B0006369C3F3080313B3E26996421FD094F9F7
:1057C0001030002B0EDA012304F1280101984078F3
:1057D000FEF770FE10B1012060741FE0237C03F01F
:1057E0007F0323740123324604F128010198407895
:1057F000FEF744FE10B1012060740FE0E6616369BA
:10580000E268934209D9E360237C43F040032374A8
:10581000284603E002E0284600E0284603B0F0BD39
:1058200010B5012810D14FF6FF7399420CD109240D
:105830000F4BB4F1FF3F07D000221A70DA605A61B3
:105840009A611C33013CF4E780B94FF6FF7399422B
:105850000CD1084C064B9C4208D01C3CE368002B42
:10586000F8D0201D032201469847F3E710BD00BF82
:1058700020030020380400200A4B1B680A4AA2FBC0
:1058800003239B09013BB3F1807F09D2074A536090
:10589000F021074B83F82310002393600723136044
:1058A000704700BF28000020D34D621010E000E0D8
:1058B00000ED00E0092805D8C0EBC00083000021FE
:1058C000014AD154704700BF200300200023092B58
:1058D0000FDCC3EBC3018A0008498A5C3AB1D900E6
:1058E000C91A8A0005490A445169091A51610133EC
:1058F000EDE7034A13681844106070472003002046
:105900001C030020014B1868704700BF1C030020D7
:10591000034B1B681844024B1B689842FBD8704726
:105920001C0300200020092807DCC0EBC002930004
:10593000034AD35C1BB10130F5E74FF0FF307047ED
:105940002003002008B5FFF7DDFF08BD08B50120E2
:10595000FFF7BCFF08BD00BF08B583680BB902F0B4
:10596000CCF9C368984708BD10B50024092C2BDC7E
:10597000C4EBC4029300154AD25C1AB313490B441A
:105980005B69002B1EDC012A05D1C4EBC4018A002F
:1059900000200E498854C4EBC4018A000B498A5C7C
:1059A000022A07D1E100091B8A0008490A449169CB
:1059B0000B445361C4EBC402930004481844043000
:1059C000FFF7CAFF0134D1E710BD00BF200300205C
:1059D00038B50446002383608B6833B10D4602223C
:1059E0009847EB68E360AB68A360204638BD00BF12
:1059F0002DE9F04186B080460F46FFF793FFB0F1E6
:105A0000FF3F2FD005461A49C3001B1A9A008C1875
:105A100002238B54043402AE41463046FFF7D8FFD0
:105A200096E803008DE8030094E8030086E803008D
:105A30009DE8030084E80300049AA3680493A2602D
:105A4000059AE1680591E2601BB1032202A90846AC
:105A50009847EA00521B9300054A13445F619F6117
:105A6000284601E04FF0FF3006B0BDE8F08100BFEE
:105A7000200300202DE9F04186B080460F46FFF755
:105A800051FFB0F1FF3F2ED005461949C3001B1A44
:105A90009A008C1801238B54043402AE41463046E0
:105AA000FFF796FF96E803008DE8030094E80300F3
:105AB00086E803009DE8030084E80300049AA368D5
:105AC0000493A260059AE1680591E2601BB103228C
